{
  "_format": "hh-sol-artifact-1",
  "contractName": "AidGovernance",
  "sourceName": "contracts/Governance/AidGovernance.sol",
  "abi": [
    {
      "inputs": [
        {
          "internalType": "contract IVotes",
          "name": "_token",
          "type": "address"
        },
        {
          "internalType": "contract TimelockController",
          "name": "_timelock",
          "type": "address"
        },
        {
          "internalType": "uint256",
          "name": "voting_delay",
          "type": "uint256"
        },
        {
          "internalType": "uint256",
          "name": "voting_period",
          "type": "uint256"
        }
      ],
      "stateMutability": "nonpayable",
      "type": "constructor"
    },
    {
      "inputs": [],
      "name": "Empty",
      "type": "error"
    },
    {
      "inputs": [],
      "name": "InvalidShortString",
      "type": "error"
    },
    {
      "inputs": [
        {
          "internalType": "string",
          "name": "str",
          "type": "string"
        }
      ],
      "name": "StringTooLong",
      "type": "error"
    },
    {
      "anonymous": false,
      "inputs": [],
      "name": "EIP712DomainChanged",
      "type": "event"
    },
    {
      "anonymous": false,
      "inputs": [
        {
          "indexed": false,
          "internalType": "uint256",
          "name": "proposalId",
          "type": "uint256"
        }
      ],
      "name": "ProposalCanceled",
      "type": "event"
    },
    {
      "anonymous": false,
      "inputs": [
        {
          "indexed": false,
          "internalType": "uint256",
          "name": "proposalId",
          "type": "uint256"
        },
        {
          "indexed": false,
          "internalType": "address",
          "name": "proposer",
          "type": "address"
        },
        {
          "indexed": false,
          "internalType": "address[]",
          "name": "targets",
          "type": "address[]"
        },
        {
          "indexed": false,
          "internalType": "uint256[]",
          "name": "values",
          "type": "uint256[]"
        },
        {
          "indexed": false,
          "internalType": "string[]",
          "name": "signatures",
          "type": "string[]"
        },
        {
          "indexed": false,
          "internalType": "bytes[]",
          "name": "calldatas",
          "type": "bytes[]"
        },
        {
          "indexed": false,
          "internalType": "uint256",
          "name": "voteStart",
          "type": "uint256"
        },
        {
          "indexed": false,
          "internalType": "uint256",
          "name": "voteEnd",
          "type": "uint256"
        },
        {
          "indexed": false,
          "internalType": "string",
          "name": "description",
          "type": "string"
        }
      ],
      "name": "ProposalCreated",
      "type": "event"
    },
    {
      "anonymous": false,
      "inputs": [
        {
          "indexed": false,
          "internalType": "uint256",
          "name": "proposalId",
          "type": "uint256"
        }
      ],
      "name": "ProposalExecuted",
      "type": "event"
    },
    {
      "anonymous": false,
      "inputs": [
        {
          "indexed": false,
          "internalType": "uint256",
          "name": "proposalId",
          "type": "uint256"
        },
        {
          "indexed": false,
          "internalType": "uint256",
          "name": "eta",
          "type": "uint256"
        }
      ],
      "name": "ProposalQueued",
      "type": "event"
    },
    {
      "anonymous": false,
      "inputs": [
        {
          "indexed": false,
          "internalType": "uint256",
          "name": "oldProposalThreshold",
          "type": "uint256"
        },
        {
          "indexed": false,
          "internalType": "uint256",
          "name": "newProposalThreshold",
          "type": "uint256"
        }
      ],
      "name": "ProposalThresholdSet",
      "type": "event"
    },
    {
      "anonymous": false,
      "inputs": [
        {
          "indexed": false,
          "internalType": "uint256",
          "name": "oldQuorumNumerator",
          "type": "uint256"
        },
        {
          "indexed": false,
          "internalType": "uint256",
          "name": "newQuorumNumerator",
          "type": "uint256"
        }
      ],
      "name": "QuorumNumeratorUpdated",
      "type": "event"
    },
    {
      "anonymous": false,
      "inputs": [
        {
          "indexed": false,
          "internalType": "address",
          "name": "oldTimelock",
          "type": "address"
        },
        {
          "indexed": false,
          "internalType": "address",
          "name": "newTimelock",
          "type": "address"
        }
      ],
      "name": "TimelockChange",
      "type": "event"
    },
    {
      "anonymous": false,
      "inputs": [
        {
          "indexed": true,
          "internalType": "address",
          "name": "voter",
          "type": "address"
        },
        {
          "indexed": false,
          "internalType": "uint256",
          "name": "proposalId",
          "type": "uint256"
        },
        {
          "indexed": false,
          "internalType": "uint8",
          "name": "support",
          "type": "uint8"
        },
        {
          "indexed": false,
          "internalType": "uint256",
          "name": "weight",
          "type": "uint256"
        },
        {
          "indexed": false,
          "internalType": "string",
          "name": "reason",
          "type": "string"
        }
      ],
      "name": "VoteCast",
      "type": "event"
    },
    {
      "anonymous": false,
      "inputs": [
        {
          "indexed": true,
          "internalType": "address",
          "name": "voter",
          "type": "address"
        },
        {
          "indexed": false,
          "internalType": "uint256",
          "name": "proposalId",
          "type": "uint256"
        },
        {
          "indexed": false,
          "internalType": "uint8",
          "name": "support",
          "type": "uint8"
        },
        {
          "indexed": false,
          "internalType": "uint256",
          "name": "weight",
          "type": "uint256"
        },
        {
          "indexed": false,
          "internalType": "string",
          "name": "reason",
          "type": "string"
        },
        {
          "indexed": false,
          "internalType": "bytes",
          "name": "params",
          "type": "bytes"
        }
      ],
      "name": "VoteCastWithParams",
      "type": "event"
    },
    {
      "anonymous": false,
      "inputs": [
        {
          "indexed": false,
          "internalType": "uint256",
          "name": "oldVotingDelay",
          "type": "uint256"
        },
        {
          "indexed": false,
          "internalType": "uint256",
          "name": "newVotingDelay",
          "type": "uint256"
        }
      ],
      "name": "VotingDelaySet",
      "type": "event"
    },
    {
      "anonymous": false,
      "inputs": [
        {
          "indexed": false,
          "internalType": "uint256",
          "name": "oldVotingPeriod",
          "type": "uint256"
        },
        {
          "indexed": false,
          "internalType": "uint256",
          "name": "newVotingPeriod",
          "type": "uint256"
        }
      ],
      "name": "VotingPeriodSet",
      "type": "event"
    },
    {
      "inputs": [],
      "name": "BALLOT_TYPEHASH",
      "outputs": [
        {
          "internalType": "bytes32",
          "name": "",
          "type": "bytes32"
        }
      ],
      "stateMutability": "view",
      "type": "function"
    },
    {
      "inputs": [],
      "name": "CLOCK_MODE",
      "outputs": [
        {
          "internalType": "string",
          "name": "",
          "type": "string"
        }
      ],
      "stateMutability": "view",
      "type": "function"
    },
    {
      "inputs": [],
      "name": "COUNTING_MODE",
      "outputs": [
        {
          "internalType": "string",
          "name": "",
          "type": "string"
        }
      ],
      "stateMutability": "pure",
      "type": "function"
    },
    {
      "inputs": [],
      "name": "EXTENDED_BALLOT_TYPEHASH",
      "outputs": [
        {
          "internalType": "bytes32",
          "name": "",
          "type": "bytes32"
        }
      ],
      "stateMutability": "view",
      "type": "function"
    },
    {
      "inputs": [
        {
          "internalType": "address[]",
          "name": "targets",
          "type": "address[]"
        },
        {
          "internalType": "uint256[]",
          "name": "values",
          "type": "uint256[]"
        },
        {
          "internalType": "bytes[]",
          "name": "calldatas",
          "type": "bytes[]"
        },
        {
          "internalType": "bytes32",
          "name": "descriptionHash",
          "type": "bytes32"
        }
      ],
      "name": "cancel",
      "outputs": [
        {
          "internalType": "uint256",
          "name": "",
          "type": "uint256"
        }
      ],
      "stateMutability": "nonpayable",
      "type": "function"
    },
    {
      "inputs": [
        {
          "internalType": "uint256",
          "name": "proposalId",
          "type": "uint256"
        },
        {
          "internalType": "uint8",
          "name": "support",
          "type": "uint8"
        }
      ],
      "name": "castVote",
      "outputs": [
        {
          "internalType": "uint256",
          "name": "",
          "type": "uint256"
        }
      ],
      "stateMutability": "nonpayable",
      "type": "function"
    },
    {
      "inputs": [
        {
          "internalType": "uint256",
          "name": "proposalId",
          "type": "uint256"
        },
        {
          "internalType": "uint8",
          "name": "support",
          "type": "uint8"
        },
        {
          "internalType": "uint8",
          "name": "v",
          "type": "uint8"
        },
        {
          "internalType": "bytes32",
          "name": "r",
          "type": "bytes32"
        },
        {
          "internalType": "bytes32",
          "name": "s",
          "type": "bytes32"
        }
      ],
      "name": "castVoteBySig",
      "outputs": [
        {
          "internalType": "uint256",
          "name": "",
          "type": "uint256"
        }
      ],
      "stateMutability": "nonpayable",
      "type": "function"
    },
    {
      "inputs": [
        {
          "internalType": "uint256",
          "name": "proposalId",
          "type": "uint256"
        },
        {
          "internalType": "uint8",
          "name": "support",
          "type": "uint8"
        },
        {
          "internalType": "string",
          "name": "reason",
          "type": "string"
        }
      ],
      "name": "castVoteWithReason",
      "outputs": [
        {
          "internalType": "uint256",
          "name": "",
          "type": "uint256"
        }
      ],
      "stateMutability": "nonpayable",
      "type": "function"
    },
    {
      "inputs": [
        {
          "internalType": "uint256",
          "name": "proposalId",
          "type": "uint256"
        },
        {
          "internalType": "uint8",
          "name": "support",
          "type": "uint8"
        },
        {
          "internalType": "string",
          "name": "reason",
          "type": "string"
        },
        {
          "internalType": "bytes",
          "name": "params",
          "type": "bytes"
        }
      ],
      "name": "castVoteWithReasonAndParams",
      "outputs": [
        {
          "internalType": "uint256",
          "name": "",
          "type": "uint256"
        }
      ],
      "stateMutability": "nonpayable",
      "type": "function"
    },
    {
      "inputs": [
        {
          "internalType": "uint256",
          "name": "proposalId",
          "type": "uint256"
        },
        {
          "internalType": "uint8",
          "name": "support",
          "type": "uint8"
        },
        {
          "internalType": "string",
          "name": "reason",
          "type": "string"
        },
        {
          "internalType": "bytes",
          "name": "params",
          "type": "bytes"
        },
        {
          "internalType": "uint8",
          "name": "v",
          "type": "uint8"
        },
        {
          "internalType": "bytes32",
          "name": "r",
          "type": "bytes32"
        },
        {
          "internalType": "bytes32",
          "name": "s",
          "type": "bytes32"
        }
      ],
      "name": "castVoteWithReasonAndParamsBySig",
      "outputs": [
        {
          "internalType": "uint256",
          "name": "",
          "type": "uint256"
        }
      ],
      "stateMutability": "nonpayable",
      "type": "function"
    },
    {
      "inputs": [],
      "name": "clock",
      "outputs": [
        {
          "internalType": "uint48",
          "name": "",
          "type": "uint48"
        }
      ],
      "stateMutability": "view",
      "type": "function"
    },
    {
      "inputs": [],
      "name": "eip712Domain",
      "outputs": [
        {
          "internalType": "bytes1",
          "name": "fields",
          "type": "bytes1"
        },
        {
          "internalType": "string",
          "name": "name",
          "type": "string"
        },
        {
          "internalType": "string",
          "name": "version",
          "type": "string"
        },
        {
          "internalType": "uint256",
          "name": "chainId",
          "type": "uint256"
        },
        {
          "internalType": "address",
          "name": "verifyingContract",
          "type": "address"
        },
        {
          "internalType": "bytes32",
          "name": "salt",
          "type": "bytes32"
        },
        {
          "internalType": "uint256[]",
          "name": "extensions",
          "type": "uint256[]"
        }
      ],
      "stateMutability": "view",
      "type": "function"
    },
    {
      "inputs": [
        {
          "internalType": "address[]",
          "name": "targets",
          "type": "address[]"
        },
        {
          "internalType": "uint256[]",
          "name": "values",
          "type": "uint256[]"
        },
        {
          "internalType": "bytes[]",
          "name": "calldatas",
          "type": "bytes[]"
        },
        {
          "internalType": "bytes32",
          "name": "descriptionHash",
          "type": "bytes32"
        }
      ],
      "name": "execute",
      "outputs": [
        {
          "internalType": "uint256",
          "name": "",
          "type": "uint256"
        }
      ],
      "stateMutability": "payable",
      "type": "function"
    },
    {
      "inputs": [
        {
          "internalType": "address",
          "name": "account",
          "type": "address"
        },
        {
          "internalType": "uint256",
          "name": "timepoint",
          "type": "uint256"
        }
      ],
      "name": "getVotes",
      "outputs": [
        {
          "internalType": "uint256",
          "name": "",
          "type": "uint256"
        }
      ],
      "stateMutability": "view",
      "type": "function"
    },
    {
      "inputs": [
        {
          "internalType": "address",
          "name": "account",
          "type": "address"
        },
        {
          "internalType": "uint256",
          "name": "timepoint",
          "type": "uint256"
        },
        {
          "internalType": "bytes",
          "name": "params",
          "type": "bytes"
        }
      ],
      "name": "getVotesWithParams",
      "outputs": [
        {
          "internalType": "uint256",
          "name": "",
          "type": "uint256"
        }
      ],
      "stateMutability": "view",
      "type": "function"
    },
    {
      "inputs": [
        {
          "internalType": "uint256",
          "name": "proposalId",
          "type": "uint256"
        },
        {
          "internalType": "address",
          "name": "account",
          "type": "address"
        }
      ],
      "name": "hasVoted",
      "outputs": [
        {
          "internalType": "bool",
          "name": "",
          "type": "bool"
        }
      ],
      "stateMutability": "view",
      "type": "function"
    },
    {
      "inputs": [
        {
          "internalType": "address[]",
          "name": "targets",
          "type": "address[]"
        },
        {
          "internalType": "uint256[]",
          "name": "values",
          "type": "uint256[]"
        },
        {
          "internalType": "bytes[]",
          "name": "calldatas",
          "type": "bytes[]"
        },
        {
          "internalType": "bytes32",
          "name": "descriptionHash",
          "type": "bytes32"
        }
      ],
      "name": "hashProposal",
      "outputs": [
        {
          "internalType": "uint256",
          "name": "",
          "type": "uint256"
        }
      ],
      "stateMutability": "pure",
      "type": "function"
    },
    {
      "inputs": [],
      "name": "name",
      "outputs": [
        {
          "internalType": "string",
          "name": "",
          "type": "string"
        }
      ],
      "stateMutability": "view",
      "type": "function"
    },
    {
      "inputs": [
        {
          "internalType": "address",
          "name": "",
          "type": "address"
        },
        {
          "internalType": "address",
          "name": "",
          "type": "address"
        },
        {
          "internalType": "uint256[]",
          "name": "",
          "type": "uint256[]"
        },
        {
          "internalType": "uint256[]",
          "name": "",
          "type": "uint256[]"
        },
        {
          "internalType": "bytes",
          "name": "",
          "type": "bytes"
        }
      ],
      "name": "onERC1155BatchReceived",
      "outputs": [
        {
          "internalType": "bytes4",
          "name": "",
          "type": "bytes4"
        }
      ],
      "stateMutability": "nonpayable",
      "type": "function"
    },
    {
      "inputs": [
        {
          "internalType": "address",
          "name": "",
          "type": "address"
        },
        {
          "internalType": "address",
          "name": "",
          "type": "address"
        },
        {
          "internalType": "uint256",
          "name": "",
          "type": "uint256"
        },
        {
          "internalType": "uint256",
          "name": "",
          "type": "uint256"
        },
        {
          "internalType": "bytes",
          "name": "",
          "type": "bytes"
        }
      ],
      "name": "onERC1155Received",
      "outputs": [
        {
          "internalType": "bytes4",
          "name": "",
          "type": "bytes4"
        }
      ],
      "stateMutability": "nonpayable",
      "type": "function"
    },
    {
      "inputs": [
        {
          "internalType": "address",
          "name": "",
          "type": "address"
        },
        {
          "internalType": "address",
          "name": "",
          "type": "address"
        },
        {
          "internalType": "uint256",
          "name": "",
          "type": "uint256"
        },
        {
          "internalType": "bytes",
          "name": "",
          "type": "bytes"
        }
      ],
      "name": "onERC721Received",
      "outputs": [
        {
          "internalType": "bytes4",
          "name": "",
          "type": "bytes4"
        }
      ],
      "stateMutability": "nonpayable",
      "type": "function"
    },
    {
      "inputs": [
        {
          "internalType": "uint256",
          "name": "proposalId",
          "type": "uint256"
        }
      ],
      "name": "proposalDeadline",
      "outputs": [
        {
          "internalType": "uint256",
          "name": "",
          "type": "uint256"
        }
      ],
      "stateMutability": "view",
      "type": "function"
    },
    {
      "inputs": [
        {
          "internalType": "uint256",
          "name": "proposalId",
          "type": "uint256"
        }
      ],
      "name": "proposalEta",
      "outputs": [
        {
          "internalType": "uint256",
          "name": "",
          "type": "uint256"
        }
      ],
      "stateMutability": "view",
      "type": "function"
    },
    {
      "inputs": [
        {
          "internalType": "uint256",
          "name": "proposalId",
          "type": "uint256"
        }
      ],
      "name": "proposalProposer",
      "outputs": [
        {
          "internalType": "address",
          "name": "",
          "type": "address"
        }
      ],
      "stateMutability": "view",
      "type": "function"
    },
    {
      "inputs": [
        {
          "internalType": "uint256",
          "name": "proposalId",
          "type": "uint256"
        }
      ],
      "name": "proposalSnapshot",
      "outputs": [
        {
          "internalType": "uint256",
          "name": "",
          "type": "uint256"
        }
      ],
      "stateMutability": "view",
      "type": "function"
    },
    {
      "inputs": [],
      "name": "proposalThreshold",
      "outputs": [
        {
          "internalType": "uint256",
          "name": "",
          "type": "uint256"
        }
      ],
      "stateMutability": "view",
      "type": "function"
    },
    {
      "inputs": [
        {
          "internalType": "uint256",
          "name": "proposalId",
          "type": "uint256"
        }
      ],
      "name": "proposalVotes",
      "outputs": [
        {
          "internalType": "uint256",
          "name": "againstVotes",
          "type": "uint256"
        },
        {
          "internalType": "uint256",
          "name": "forVotes",
          "type": "uint256"
        },
        {
          "internalType": "uint256",
          "name": "abstainVotes",
          "type": "uint256"
        }
      ],
      "stateMutability": "view",
      "type": "function"
    },
    {
      "inputs": [
        {
          "internalType": "address[]",
          "name": "targets",
          "type": "address[]"
        },
        {
          "internalType": "uint256[]",
          "name": "values",
          "type": "uint256[]"
        },
        {
          "internalType": "bytes[]",
          "name": "calldatas",
          "type": "bytes[]"
        },
        {
          "internalType": "string",
          "name": "description",
          "type": "string"
        }
      ],
      "name": "propose",
      "outputs": [
        {
          "internalType": "uint256",
          "name": "",
          "type": "uint256"
        }
      ],
      "stateMutability": "nonpayable",
      "type": "function"
    },
    {
      "inputs": [
        {
          "internalType": "address[]",
          "name": "targets",
          "type": "address[]"
        },
        {
          "internalType": "uint256[]",
          "name": "values",
          "type": "uint256[]"
        },
        {
          "internalType": "bytes[]",
          "name": "calldatas",
          "type": "bytes[]"
        },
        {
          "internalType": "bytes32",
          "name": "descriptionHash",
          "type": "bytes32"
        }
      ],
      "name": "queue",
      "outputs": [
        {
          "internalType": "uint256",
          "name": "",
          "type": "uint256"
        }
      ],
      "stateMutability": "nonpayable",
      "type": "function"
    },
    {
      "inputs": [
        {
          "internalType": "uint256",
          "name": "blockNumber",
          "type": "uint256"
        }
      ],
      "name": "quorum",
      "outputs": [
        {
          "internalType": "uint256",
          "name": "",
          "type": "uint256"
        }
      ],
      "stateMutability": "view",
      "type": "function"
    },
    {
      "inputs": [],
      "name": "quorumDenominator",
      "outputs": [
        {
          "internalType": "uint256",
          "name": "",
          "type": "uint256"
        }
      ],
      "stateMutability": "view",
      "type": "function"
    },
    {
      "inputs": [
        {
          "internalType": "uint256",
          "name": "timepoint",
          "type": "uint256"
        }
      ],
      "name": "quorumNumerator",
      "outputs": [
        {
          "internalType": "uint256",
          "name": "",
          "type": "uint256"
        }
      ],
      "stateMutability": "view",
      "type": "function"
    },
    {
      "inputs": [],
      "name": "quorumNumerator",
      "outputs": [
        {
          "internalType": "uint256",
          "name": "",
          "type": "uint256"
        }
      ],
      "stateMutability": "view",
      "type": "function"
    },
    {
      "inputs": [
        {
          "internalType": "address",
          "name": "target",
          "type": "address"
        },
        {
          "internalType": "uint256",
          "name": "value",
          "type": "uint256"
        },
        {
          "internalType": "bytes",
          "name": "data",
          "type": "bytes"
        }
      ],
      "name": "relay",
      "outputs": [],
      "stateMutability": "payable",
      "type": "function"
    },
    {
      "inputs": [
        {
          "internalType": "uint256",
          "name": "newProposalThreshold",
          "type": "uint256"
        }
      ],
      "name": "setProposalThreshold",
      "outputs": [],
      "stateMutability": "nonpayable",
      "type": "function"
    },
    {
      "inputs": [
        {
          "internalType": "uint256",
          "name": "newVotingDelay",
          "type": "uint256"
        }
      ],
      "name": "setVotingDelay",
      "outputs": [],
      "stateMutability": "nonpayable",
      "type": "function"
    },
    {
      "inputs": [
        {
          "internalType": "uint256",
          "name": "newVotingPeriod",
          "type": "uint256"
        }
      ],
      "name": "setVotingPeriod",
      "outputs": [],
      "stateMutability": "nonpayable",
      "type": "function"
    },
    {
      "inputs": [
        {
          "internalType": "uint256",
          "name": "proposalId",
          "type": "uint256"
        }
      ],
      "name": "state",
      "outputs": [
        {
          "internalType": "enum IGovernor.ProposalState",
          "name": "",
          "type": "uint8"
        }
      ],
      "stateMutability": "view",
      "type": "function"
    },
    {
      "inputs": [
        {
          "internalType": "bytes4",
          "name": "interfaceId",
          "type": "bytes4"
        }
      ],
      "name": "supportsInterface",
      "outputs": [
        {
          "internalType": "bool",
          "name": "",
          "type": "bool"
        }
      ],
      "stateMutability": "view",
      "type": "function"
    },
    {
      "inputs": [],
      "name": "timelock",
      "outputs": [
        {
          "internalType": "address",
          "name": "",
          "type": "address"
        }
      ],
      "stateMutability": "view",
      "type": "function"
    },
    {
      "inputs": [],
      "name": "token",
      "outputs": [
        {
          "internalType": "contract IERC5805",
          "name": "",
          "type": "address"
        }
      ],
      "stateMutability": "view",
      "type": "function"
    },
    {
      "inputs": [
        {
          "internalType": "uint256",
          "name": "newQuorumNumerator",
          "type": "uint256"
        }
      ],
      "name": "updateQuorumNumerator",
      "outputs": [],
      "stateMutability": "nonpayable",
      "type": "function"
    },
    {
      "inputs": [
        {
          "internalType": "contract TimelockController",
          "name": "newTimelock",
          "type": "address"
        }
      ],
      "name": "updateTimelock",
      "outputs": [],
      "stateMutability": "nonpayable",
      "type": "function"
    },
    {
      "inputs": [],
      "name": "version",
      "outputs": [
        {
          "internalType": "string",
          "name": "",
          "type": "string"
        }
      ],
      "stateMutability": "view",
      "type": "function"
    },
    {
      "inputs": [],
      "name": "votingDelay",
      "outputs": [
        {
          "internalType": "uint256",
          "name": "",
          "type": "uint256"
        }
      ],
      "stateMutability": "view",
      "type": "function"
    },
    {
      "inputs": [],
      "name": "votingPeriod",
      "outputs": [
        {
          "internalType": "uint256",
          "name": "",
          "type": "uint256"
        }
      ],
      "stateMutability": "view",
      "type": "function"
    },
    {
      "stateMutability": "payable",
      "type": "receive"
    }
  ],
  "bytecode": "0x6101806040523480156200001257600080fd5b50604051620055ad380380620055ad833981016040819052620000359162000a8c565b82600485848460006040518060400160405280600d81526020016c416964476f7665726e616e636560981b8152508062000074620001ae60201b60201c565b6200008f600083620001c960201b620019101790919060201c565b61012052620000ac816001620001c9602090811b6200191017901c565b61014052815160208084019190912060e052815190820120610100524660a0526200013a60e05161010051604080517f8b73c3c69bb8fe3d512ecc4cf759cc79239f7b179b0ffacaa9a75d522b39400f60208201529081019290925260608201524660808201523060a082015260009060c00160405160208183030381529060405280519060200120905090565b60805250503060c052805162000158906002906020840190620009d7565b50620001669050836200021d565b62000171826200025e565b6200017c8162000305565b5050506001600160a01b031661016052620001978162000346565b50620001a381620004fb565b505050505062000be0565b6040805180820190915260018152603160f81b602082015290565b6000602083511015620001e957620001e18362000564565b905062000217565b826200020083620005a760201b620019471760201c565b8151620002119260200190620009d7565b5060ff90505b92915050565b60065460408051918252602082018390527fc565b045403dc03c2eea82b81a0465edad9e2e7fc4d97e11421c209da93d7a93910160405180910390a1600655565b60008111620002c45760405162461bcd60e51b815260206004820152602760248201527f476f7665726e6f7253657474696e67733a20766f74696e6720706572696f6420604482015266746f6f206c6f7760c81b60648201526084015b60405180910390fd5b60075460408051918252602082018390527f7e3f7f0708a84de9203036abaa450dccc85ad5ff52f78c170f3edb55cf5e8828910160405180910390a1600755565b60085460408051918252602082018390527fccb45da8d5717e6c4544694297c4ba5cf151d455c9bb0ed4fc7a38411bc05461910160405180910390a1600855565b6064811115620003cb5760405162461bcd60e51b815260206004820152604360248201527f476f7665726e6f72566f74657351756f72756d4672616374696f6e3a2071756f60448201527f72756d4e756d657261746f72206f7665722071756f72756d44656e6f6d696e616064820152623a37b960e91b608482015260a401620002bb565b6000620003d7620005aa565b90508015801590620003e95750600b54155b156200046457600b6000016040518060400160405280600063ffffffff1681526020016200042284620005e460201b6200194a1760201c565b6001600160e01b0390811690915282546001810184556000938452602093849020835194909301519091166401000000000263ffffffff909316929092179101555b620004bc6200048f6200047662000653565b65ffffffffffff16620006e560201b620019b71760201c565b620004a584620005e460201b6200194a1760201c565b600b6200074c60201b62001a1c179092919060201c565b505060408051828152602081018490527f0553476bf02ef2726e8ce5ced78d63e26e602e4a2257b1f559418e24b4633997910160405180910390a15050565b600c54604080516001600160a01b03928316815291831660208301527f08f74ea46ef7894f65eabfb5e6e695de773a000b47c529ab559178069b226401910160405180910390a1600c80546001600160a01b0319166001600160a01b0392909216919091179055565b600080829050601f8151111562000592578260405163305a27a960e01b8152600401620002bb919062000ad9565b80516200059f8262000b31565b179392505050565b90565b600b5460009015620005db57620005cd600b6200076960201b62001a371760201c565b6001600160e01b0316905090565b600a545b905090565b60006001600160e01b038211156200064f5760405162461bcd60e51b815260206004820152602760248201527f53616665436173743a2076616c756520646f65736e27742066697420696e20326044820152663234206269747360c81b6064820152608401620002bb565b5090565b6000610160516001600160a01b03166391ddadf46040518163ffffffff1660e01b815260040160206040518083038186803b1580156200069257600080fd5b505afa925050508015620006c5575060408051601f3d908101601f19168201909252620006c29181019062000b59565b60015b620006e057620005df43620007b760201b62001a751760201c565b919050565b600063ffffffff8211156200064f5760405162461bcd60e51b815260206004820152602660248201527f53616665436173743a2076616c756520646f65736e27742066697420696e203360448201526532206269747360d01b6064820152608401620002bb565b6000806200075c85858562000820565b915091505b935093915050565b80546000908015620007ad5762000795836200078760018462000b83565b600091825260209091200190565b5464010000000090046001600160e01b0316620007b0565b60005b9392505050565b600065ffffffffffff8211156200064f5760405162461bcd60e51b815260206004820152602660248201527f53616665436173743a2076616c756520646f65736e27742066697420696e203460448201526538206269747360d01b6064820152608401620002bb565b8254600090819080156200097c57600062000842876200078760018562000b83565b60408051808201909152905463ffffffff8082168084526401000000009092046001600160e01b031660208401529192509087161015620008c65760405162461bcd60e51b815260206004820152601b60248201527f436865636b706f696e743a2064656372656173696e67206b65797300000000006044820152606401620002bb565b8563ffffffff16816000015163ffffffff1614156200091b5784620008f2886200078760018662000b83565b80546001600160e01b03929092166401000000000263ffffffff9092169190911790556200096b565b6040805180820190915263ffffffff80881682526001600160e01b0380881660208085019182528b54600181018d5560008d81529190912094519151909216640100000000029216919091179101555b602001519250839150620007619050565b50506040805180820190915263ffffffff80851682526001600160e01b0380851660208085019182528854600181018a5560008a81529182209551925190931664010000000002919093161792019190915590508162000761565b828054620009e59062000ba9565b90600052602060002090601f01602090048101928262000a09576000855562000a54565b82601f1062000a2457805160ff191683800117855562000a54565b8280016001018555821562000a54579182015b8281111562000a5457825182559160200191906001019062000a37565b506200064f9291505b808211156200064f576000815560010162000a5d565b6001600160a01b038116811462000a8957600080fd5b50565b6000806000806080858703121562000aa357600080fd5b845162000ab08162000a73565b602086015190945062000ac38162000a73565b6040860151606090960151949790965092505050565b600060208083528351808285015260005b8181101562000b085785810183015185820160400152820162000aea565b8181111562000b1b576000604083870101525b50601f01601f1916929092016040019392505050565b8051602080830151919081101562000b53576000198160200360031b1b821691505b50919050565b60006020828403121562000b6c57600080fd5b815165ffffffffffff81168114620007b057600080fd5b60008282101562000ba457634e487b7160e01b600052601160045260246000fd5b500390565b600181811c9082168062000bbe57607f821691505b6020821081141562000b5357634e487b7160e01b600052602260045260246000fd5b60805160a05160c05160e0516101005161012051610140516101605161494b62000c62600039600081816109e1015281816111030152818161146901528181612699015261289c01526000611415015260006113eb01526000612c8c01526000612c6401526000612bbf01526000612be901526000612c13015261494b6000f3fe6080604052600436106102815760003560e01c80637b3c71d31161014f578063c01f9e37116100c1578063ea0217cf1161007a578063ea0217cf14610923578063eb9019d414610943578063ece40cc114610963578063f23a6e6114610983578063f8ce560a146109af578063fc0c546a146109cf57600080fd5b8063c01f9e371461081f578063c28bc2fa14610858578063c59057e41461086b578063d33219b41461088b578063dd4e2ba5146108a9578063deaaa7cc146108ef57600080fd5b80639a802a6d116101135780639a802a6d14610769578063a7713a7014610789578063a890c9101461079e578063ab58fb8e146107be578063b58131b0146107de578063bc197c81146107f357600080fd5b80637b3c71d3146106c15780637d5e81e2146106e157806384b0196e1461070157806391ddadf41461072957806397c3d3341461075557600080fd5b80633932abb1116101f3578063544ffc9c116101ac578063544ffc9c146105c257806354fd4d501461061757806356781388146106415780635f398a141461066157806360c4247f1461068157806370b0f660146106a157600080fd5b80633932abb1146104e15780633bccf4fd146104f65780633e4f49e6146105165780634385963214610543578063452115d61461058d5780634bf5d7e9146105ad57600080fd5b8063143489d011610245578063143489d0146103ab578063150b7a0214610400578063160cbed7146104445780632656227d146104645780632d63f693146104775780632fe3e261146104ad57600080fd5b806301ffc9a7146102f157806302a251a314610326578063034201811461034957806306f3f9e61461036957806306fdde031461038957600080fd5b366102ec573061028f610a03565b6001600160a01b0316146102ea5760405162461bcd60e51b815260206004820152601f60248201527f476f7665726e6f723a206d7573742073656e6420746f206578656375746f720060448201526064015b60405180910390fd5b005b600080fd5b3480156102fd57600080fd5b5061031161030c366004613979565b610a1c565b60405190151581526020015b60405180910390f35b34801561033257600080fd5b5061033b610a2d565b60405190815260200161031d565b34801561035557600080fd5b5061033b610364366004613ac7565b610a38565b34801561037557600080fd5b506102ea610384366004613b6d565b610b30565b34801561039557600080fd5b5061039e610bbf565b60405161031d9190613be2565b3480156103b757600080fd5b506103e86103c6366004613b6d565b600090815260036020526040902054600160401b90046001600160a01b031690565b6040516001600160a01b03909116815260200161031d565b34801561040c57600080fd5b5061042b61041b366004613c0a565b630a85bd0160e11b949350505050565b6040516001600160e01b0319909116815260200161031d565b34801561045057600080fd5b5061033b61045f366004613de1565b610c51565b61033b610472366004613de1565b610e70565b34801561048357600080fd5b5061033b610492366004613b6d565b6000908152600360205260409020546001600160401b031690565b3480156104b957600080fd5b5061033b7fb3b3f3b703cd84ce352197dcff232b1b5d3cfb2025ce47cf04742d0651f1af8881565b3480156104ed57600080fd5b5061033b610f62565b34801561050257600080fd5b5061033b610511366004613e70565b610f6d565b34801561052257600080fd5b50610536610531366004613b6d565b610fe3565b60405161031d9190613ed4565b34801561054f57600080fd5b5061031161055e366004613efc565b60008281526009602090815260408083206001600160a01b038516845260030190915290205460ff1692915050565b34801561059957600080fd5b5061033b6105a8366004613de1565b610fee565b3480156105b957600080fd5b5061039e6110ff565b3480156105ce57600080fd5b506105fc6105dd366004613b6d565b6000908152600960205260409020805460018201546002909201549092565b6040805193845260208401929092529082015260600161031d565b34801561062357600080fd5b506040805180820190915260018152603160f81b602082015261039e565b34801561064d57600080fd5b5061033b61065c366004613f2c565b6111d0565b34801561066d57600080fd5b5061033b61067c366004613f58565b6111f9565b34801561068d57600080fd5b5061033b61069c366004613b6d565b611243565b3480156106ad57600080fd5b506102ea6106bc366004613b6d565b6112f2565b3480156106cd57600080fd5b5061033b6106dc366004613fdb565b61137e565b3480156106ed57600080fd5b5061033b6106fc366004614034565b6113c6565b34801561070d57600080fd5b506107166113dd565b60405161031d9796959493929190614123565b34801561073557600080fd5b5061073e611465565b60405165ffffffffffff909116815260200161031d565b34801561076157600080fd5b50606461033b565b34801561077557600080fd5b5061033b610784366004614185565b6114fd565b34801561079557600080fd5b5061033b611514565b3480156107aa57600080fd5b506102ea6107b93660046141dd565b61153e565b3480156107ca57600080fd5b5061033b6107d9366004613b6d565b6115ca565b3480156107ea57600080fd5b5061033b611673565b3480156107ff57600080fd5b5061042b61080e3660046141fa565b63bc197c8160e01b95945050505050565b34801561082b57600080fd5b5061033b61083a366004613b6d565b6000908152600360205260409020600101546001600160401b031690565b6102ea61086636600461428d565b61167e565b34801561087757600080fd5b5061033b610886366004613de1565b611792565b34801561089757600080fd5b50600c546001600160a01b03166103e8565b3480156108b557600080fd5b506040805180820190915260208082527f737570706f72743d627261766f2671756f72756d3d666f722c6162737461696e9082015261039e565b3480156108fb57600080fd5b5061033b7f150214d74d59b7d1e90c73fc22ef3d991dd0a76b046543d4d80ab92d2a50328f81565b34801561092f57600080fd5b506102ea61093e366004613b6d565b6117cc565b34801561094f57600080fd5b5061033b61095e3660046142d0565b611858565b34801561096f57600080fd5b506102ea61097e366004613b6d565b611879565b34801561098f57600080fd5b5061042b61099e3660046142fc565b63f23a6e6160e01b95945050505050565b3480156109bb57600080fd5b5061033b6109ca366004613b6d565b611905565b3480156109db57600080fd5b506103e87f000000000000000000000000000000000000000000000000000000000000000081565b6000610a17600c546001600160a01b031690565b905090565b6000610a2782611adc565b92915050565b6000610a1760075490565b600080610adc610ad47fb3b3f3b703cd84ce352197dcff232b1b5d3cfb2025ce47cf04742d0651f1af888c8c8c8c604051610a74929190614364565b60405180910390208b80519060200120604051602001610ab9959493929190948552602085019390935260ff9190911660408401526060830152608082015260a00190565b60405160208183030381529060405280519060200120611b01565b868686611b2e565b9050610b228a828b8b8b8080601f0160208091040260200160405190810160405280939291908181526020018383808284376000920191909152508d9250611b4c915050565b9a9950505050505050505050565b610b38610a03565b6001600160a01b0316336001600160a01b031614610b685760405162461bcd60e51b81526004016102e190614374565b30610b71610a03565b6001600160a01b031614610bb35760008036604051610b91929190614364565b604051809103902090505b80610ba76004611c9e565b14610bb157610b9c565b505b610bbc81611d1d565b50565b606060028054610bce906143ab565b80601f0160208091040260200160405190810160405280929190818152602001828054610bfa906143ab565b8015610c475780601f10610c1c57610100808354040283529160200191610c47565b820191906000526020600020905b815481529060010190602001808311610c2a57829003601f168201915b5050505050905090565b600080610c6086868686611792565b90506004610c6d82610fe3565b6007811115610c7e57610c7e613ebe565b14610c9b5760405162461bcd60e51b81526004016102e1906143e6565b600c546040805163793d064960e11b815290516000926001600160a01b03169163f27a0c92916004808301926020929190829003018186803b158015610ce057600080fd5b505afa158015610cf4573d6000803e3d6000fd5b505050506040513d601f19601f82011682018060405250810190610d189190614427565b600c5460405163b1c5f42760e01b81529192506001600160a01b03169063b1c5f42790610d52908a908a908a906000908b906004016144ce565b60206040518083038186803b158015610d6a57600080fd5b505afa158015610d7e573d6000803e3d6000fd5b505050506040513d601f19601f82011682018060405250810190610da29190614427565b6000838152600d602052604080822092909255600c5491516308f2a0bb60e41b81526001600160a01b0390921691638f2a0bb091610ded918b918b918b91908b90899060040161451c565b600060405180830381600087803b158015610e0757600080fd5b505af1158015610e1b573d6000803e3d6000fd5b505050507f9a2e42fd6722813d69113e7d0079d3d940171428df7373df9c7f7617cfda2892828242610e4d919061458a565b604080519283526020830191909152015b60405180910390a15095945050505050565b600080610e7f86868686611792565b90506000610e8c82610fe3565b90506004816007811115610ea257610ea2613ebe565b1480610ebf57506005816007811115610ebd57610ebd613ebe565b145b610edb5760405162461bcd60e51b81526004016102e1906143e6565b60008281526003602052604090819020600201805460ff19166001179055517f712ae1383f79ac853f8d882153778e0260ef8f03b504e2866e0593e04d2b291f90610f299084815260200190565b60405180910390a1610f3e8288888888611e8b565b610f4b8288888888611f2e565b610f588288888888611f3b565b5095945050505050565b6000610a1760065490565b604080517f150214d74d59b7d1e90c73fc22ef3d991dd0a76b046543d4d80ab92d2a50328f602082015290810186905260ff851660608201526000908190610fbb90610ad490608001610ab9565b9050610fd887828860405180602001604052806000815250611f74565b979650505050505050565b6000610a2782611f97565b600080610ffd86868686611792565b9050600061100a82610fe3565b600781111561101b5761101b613ebe565b146110685760405162461bcd60e51b815260206004820152601c60248201527f476f7665726e6f723a20746f6f206c61746520746f2063616e63656c0000000060448201526064016102e1565b600081815260036020526040902054600160401b90046001600160a01b0316336001600160a01b0316146110e95760405162461bcd60e51b815260206004820152602260248201527f476f7665726e6f723a206f6e6c792070726f706f7365722063616e2063616e63604482015261195b60f21b60648201526084016102e1565b6110f5868686866120ff565b9695505050505050565b60607f00000000000000000000000000000000000000000000000000000000000000006001600160a01b0316634bf5d7e96040518163ffffffff1660e01b815260040160006040518083038186803b15801561115a57600080fd5b505afa92505050801561118f57506040513d6000823e601f3d908101601f1916820160405261118c91908101906145a2565b60015b6111cb575060408051808201909152601d81527f6d6f64653d626c6f636b6e756d6265722666726f6d3d64656661756c74000000602082015290565b919050565b6000803390506111f184828560405180602001604052806000815250611f74565b949350505050565b600080339050610fd887828888888080601f0160208091040260200160405190810160405280939291908181526020018383808284376000920191909152508a9250611b4c915050565b600b5460009080611258575050600a54919050565b6000600b61126760018461460f565b8154811061127757611277614626565b60009182526020918290206040805180820190915291015463ffffffff8116808352600160201b9091046001600160e01b031692820192909252915084106112cd57602001516001600160e01b03169392505050565b6112e16112d9856119b7565b600b9061210d565b6001600160e01b0316949350505050565b6112fa610a03565b6001600160a01b0316336001600160a01b03161461132a5760405162461bcd60e51b81526004016102e190614374565b30611333610a03565b6001600160a01b0316146113755760008036604051611353929190614364565b604051809103902090505b806113696004611c9e565b146113735761135e565b505b610bbc816121b2565b6000803390506110f586828787878080601f016020809104026020016040519081016040528093929190818152602001838380828437600092019190915250611f7492505050565b60006113d4858585856121f3565b95945050505050565b6000606080828080836114107f0000000000000000000000000000000000000000000000000000000000000000836125cc565b61143b7f000000000000000000000000000000000000000000000000000000000000000060016125cc565b60408051600080825260208201909252600f60f81b9b939a50919850469750309650945092509050565b60007f00000000000000000000000000000000000000000000000000000000000000006001600160a01b03166391ddadf46040518163ffffffff1660e01b815260040160206040518083038186803b1580156114c057600080fd5b505afa9250505080156114f0575060408051601f3d908101601f191682019092526114ed9181019061463c565b60015b6111cb57610a1743611a75565b600061150a848484612670565b90505b9392505050565b600b546000901561153757611529600b611a37565b6001600160e01b0316905090565b50600a5490565b611546610a03565b6001600160a01b0316336001600160a01b0316146115765760405162461bcd60e51b81526004016102e190614374565b3061157f610a03565b6001600160a01b0316146115c1576000803660405161159f929190614364565b604051809103902090505b806115b56004611c9e565b146115bf576115aa565b505b610bbc81612715565b600c546000828152600d602052604080822054905163d45c443560e01b81526004810191909152909182916001600160a01b039091169063d45c44359060240160206040518083038186803b15801561162257600080fd5b505afa158015611636573d6000803e3d6000fd5b505050506040513d601f19601f8201168201806040525081019061165a9190614427565b90508060011461166a578061150d565b60009392505050565b6000610a1760085490565b611686610a03565b6001600160a01b0316336001600160a01b0316146116b65760405162461bcd60e51b81526004016102e190614374565b306116bf610a03565b6001600160a01b03161461170157600080366040516116df929190614364565b604051809103902090505b806116f56004611c9e565b146116ff576116ea565b505b600080856001600160a01b031685858560405161171f929190614364565b60006040518083038185875af1925050503d806000811461175c576040519150601f19603f3d011682016040523d82523d6000602084013e611761565b606091505b509150915061178982826040518060600160405280602881526020016148ee6028913961277e565b50505050505050565b6000848484846040516020016117ab9493929190614664565b60408051601f19818403018152919052805160209091012095945050505050565b6117d4610a03565b6001600160a01b0316336001600160a01b0316146118045760405162461bcd60e51b81526004016102e190614374565b3061180d610a03565b6001600160a01b03161461184f576000803660405161182d929190614364565b604051809103902090505b806118436004611c9e565b1461184d57611838565b505b610bbc81612797565b600061150d838361187460408051602081019091526000815290565b612670565b611881610a03565b6001600160a01b0316336001600160a01b0316146118b15760405162461bcd60e51b81526004016102e190614374565b306118ba610a03565b6001600160a01b0316146118fc57600080366040516118da929190614364565b604051809103902090505b806118f06004611c9e565b146118fa576118e5565b505b610bbc81612838565b6000610a2782612879565b600060208351101561192c5761192583612932565b9050610a27565b8282815161193d92602001906138e9565b5060ff9050610a27565b90565b60006001600160e01b038211156119b35760405162461bcd60e51b815260206004820152602760248201527f53616665436173743a2076616c756520646f65736e27742066697420696e20326044820152663234206269747360c81b60648201526084016102e1565b5090565b600063ffffffff8211156119b35760405162461bcd60e51b815260206004820152602660248201527f53616665436173743a2076616c756520646f65736e27742066697420696e203360448201526532206269747360d01b60648201526084016102e1565b600080611a2a858585612970565b915091505b935093915050565b8054600090801561166a57611a5f83611a5160018461460f565b600091825260209091200190565b54600160201b90046001600160e01b031661150d565b600065ffffffffffff8211156119b35760405162461bcd60e51b815260206004820152602660248201527f53616665436173743a2076616c756520646f65736e27742066697420696e203460448201526538206269747360d01b60648201526084016102e1565b60006001600160e01b03198216636e665ced60e01b1480610a275750610a2782612b16565b6000610a27611b0e612bb2565b8360405161190160f01b8152600281019290925260228201526042902090565b6000806000611b3f87878787612cdd565b91509150610f5881612da1565b60008581526003602052604081206001611b6588610fe3565b6007811115611b7657611b76613ebe565b14611bcf5760405162461bcd60e51b815260206004820152602360248201527f476f7665726e6f723a20766f7465206e6f742063757272656e746c792061637460448201526269766560e81b60648201526084016102e1565b8054600090611be99088906001600160401b031686612670565b9050611bf88888888488612eef565b8351611c4a57866001600160a01b03167fb8e138887d0aa13bab447e82de9d5c1777041ecd21ca36ba824ff1e6c07ddda489888489604051611c3d94939291906146af565b60405180910390a2610fd8565b866001600160a01b03167fe2babfbac5889a709b63bb7f598b324e08bc5a4fb9ec647fb3cbc9ec07eb87128988848989604051611c8b9594939291906146d7565b60405180910390a2979650505050505050565b6000611cb98254600f81810b600160801b909204900b131590565b15611cd757604051631ed9509560e11b815260040160405180910390fd5b508054600f0b6000818152600180840160205260408220805492905583546fffffffffffffffffffffffffffffffff191692016001600160801b03169190911790915590565b6064811115611da05760405162461bcd60e51b815260206004820152604360248201527f476f7665726e6f72566f74657351756f72756d4672616374696f6e3a2071756f60448201527f72756d4e756d657261746f72206f7665722071756f72756d44656e6f6d696e616064820152623a37b960e91b608482015260a4016102e1565b6000611daa611514565b90508015801590611dbb5750600b54155b15611e1f576040805180820190915260008152600b9060208101611dde8461194a565b6001600160e01b039081169091528254600181018455600093845260209384902083519490930151909116600160201b0263ffffffff909316929092179101555b611e4c611e3a611e2d611465565b65ffffffffffff166119b7565b611e438461194a565b600b9190611a1c565b505060408051828152602081018490527f0553476bf02ef2726e8ce5ced78d63e26e602e4a2257b1f559418e24b4633997910160405180910390a15050565b30611e94610a03565b6001600160a01b031614611f275760005b8451811015611f2557306001600160a01b0316858281518110611eca57611eca614626565b60200260200101516001600160a01b03161415611f1557611f15838281518110611ef657611ef6614626565b602002602001015180519060200120600461306e90919063ffffffff16565b611f1e8161471d565b9050611ea5565b505b5050505050565b611f2785858585856130aa565b30611f44610a03565b6001600160a01b031614611f2757600454600f81810b600160801b909204900b1315611f27576000600455611f27565b60006113d485858585611f9260408051602081019091526000815290565b611b4c565b600080611fa38361311e565b90506004816007811115611fb957611fb9613ebe565b14611fc45792915050565b6000838152600d602052604090205480611fdf575092915050565b600c54604051632ab0f52960e01b8152600481018390526001600160a01b0390911690632ab0f5299060240160206040518083038186803b15801561202357600080fd5b505afa158015612037573d6000803e3d6000fd5b505050506040513d601f19601f8201168201806040525081019061205b9190614738565b1561206a575060079392505050565b600c54604051632c258a9f60e11b8152600481018390526001600160a01b039091169063584b153e9060240160206040518083038186803b1580156120ae57600080fd5b505afa1580156120c2573d6000803e3d6000fd5b505050506040513d601f19601f820116820180604052508101906120e69190614738565b156120f5575060059392505050565b5060029392505050565b60006113d48585858561325b565b81546000908181600581111561216a5760006121288461330d565b612132908561460f565b60008881526020902090915081015463ffffffff908116908716101561215a57809150612168565b61216581600161458a565b92505b505b6000612178878785856133f2565b905080156121a55761218f87611a5160018461460f565b54600160201b90046001600160e01b0316610fd8565b6000979650505050505050565b60065460408051918252602082018390527fc565b045403dc03c2eea82b81a0465edad9e2e7fc4d97e11421c209da93d7a93910160405180910390a1600655565b6000336122008184613450565b61224c5760405162461bcd60e51b815260206004820152601d60248201527f476f7665726e6f723a2070726f706f736572207265737472696374656400000060448201526064016102e1565b6000612256611465565b65ffffffffffff169050612268611673565b6122778361095e60018561460f565b10156122df5760405162461bcd60e51b815260206004820152603160248201527f476f7665726e6f723a2070726f706f73657220766f7465732062656c6f7720706044820152701c9bdc1bdcd85b081d1a1c995cda1bdb19607a1b60648201526084016102e1565b60006122f48888888880519060200120611792565b905086518851146123175760405162461bcd60e51b81526004016102e19061475a565b85518851146123385760405162461bcd60e51b81526004016102e19061475a565b60008851116123895760405162461bcd60e51b815260206004820152601860248201527f476f7665726e6f723a20656d7074792070726f706f73616c000000000000000060448201526064016102e1565b6000818152600360205260409020546001600160401b0316156123f85760405162461bcd60e51b815260206004820152602160248201527f476f7665726e6f723a2070726f706f73616c20616c72656164792065786973746044820152607360f81b60648201526084016102e1565b6000612402610f62565b61240c908461458a565b90506000612418610a2d565b612422908361458a565b90506040518060e0016040528061243884613541565b6001600160401b031681526001600160a01b03871660208201526000604082015260600161246583613541565b6001600160401b039081168252600060208084018290526040808501839052606094850183905288835260038252918290208551815492870151878501519186166001600160e01b031990941693909317600160401b6001600160a01b039094168402176001600160e01b0316600160e01b60e09290921c91909102178155938501516080860151908416921c0217600183015560a08301516002909201805460c09094015161ffff1990941692151561ff00191692909217610100931515939093029290921790558a517f7d84a6263ae0d98d3329bd7b46bb4e8d6f98cd35a7adb45c274c8b7fd5ebd5e091859188918e918e91811115612569576125696139fc565b60405190808252806020026020018201604052801561259c57816020015b60608152602001906001900390816125875790505b508d88888f6040516125b69998979695949392919061479b565b60405180910390a1509098975050505050505050565b606060ff83146125df57611925836135a9565b8180546125eb906143ab565b80601f0160208091040260200160405190810160405280929190818152602001828054612617906143ab565b80156126645780601f1061263957610100808354040283529160200191612664565b820191906000526020600020905b81548152906001019060200180831161264757829003601f168201915b50505050509050610a27565b604051630748d63560e31b81526001600160a01b038481166004830152602482018490526000917f000000000000000000000000000000000000000000000000000000000000000090911690633a46b1a89060440160206040518083038186803b1580156126dd57600080fd5b505afa1580156126f1573d6000803e3d6000fd5b505050506040513d601f19601f8201168201806040525081019061150a9190614427565b600c54604080516001600160a01b03928316815291831660208301527f08f74ea46ef7894f65eabfb5e6e695de773a000b47c529ab559178069b226401910160405180910390a1600c80546001600160a01b0319166001600160a01b0392909216919091179055565b6060831561278d57508161150d565b61150d83836135e8565b600081116127f75760405162461bcd60e51b815260206004820152602760248201527f476f7665726e6f7253657474696e67733a20766f74696e6720706572696f6420604482015266746f6f206c6f7760c81b60648201526084016102e1565b60075460408051918252602082018390527f7e3f7f0708a84de9203036abaa450dccc85ad5ff52f78c170f3edb55cf5e8828910160405180910390a1600755565b60085460408051918252602082018390527fccb45da8d5717e6c4544694297c4ba5cf151d455c9bb0ed4fc7a38411bc05461910160405180910390a1600855565b6000606461288683611243565b604051632394e7a360e21b8152600481018590527f00000000000000000000000000000000000000000000000000000000000000006001600160a01b031690638e539e8c9060240160206040518083038186803b1580156128e657600080fd5b505afa1580156128fa573d6000803e3d6000fd5b505050506040513d601f19601f8201168201806040525081019061291e9190614427565b6129289190614872565b610a2791906148a7565b600080829050601f8151111561295d578260405163305a27a960e01b81526004016102e19190613be2565b8051612968826148c9565b179392505050565b825460009081908015612abd57600061298e87611a5160018561460f565b60408051808201909152905463ffffffff808216808452600160201b9092046001600160e01b031660208401529192509087161015612a0f5760405162461bcd60e51b815260206004820152601b60248201527f436865636b706f696e743a2064656372656173696e67206b657973000000000060448201526064016102e1565b8563ffffffff16816000015163ffffffff161415612a5e5784612a3788611a5160018661460f565b80546001600160e01b0392909216600160201b0263ffffffff909216919091179055612aad565b6040805180820190915263ffffffff80881682526001600160e01b0380881660208085019182528b54600181018d5560008d81529190912094519151909216600160201b029216919091179101555b602001519250839150611a2f9050565b50506040805180820190915263ffffffff80851682526001600160e01b0380851660208085019182528854600181018a5560008a815291822095519251909316600160201b029190931617920191909155905081611a2f565b600063288ace0360e11b6318df743f60e31b63bf26d89760e01b6379dd796f60e01b6001600160e01b03198616821480612b5c57506001600160e01b0319868116908216145b80612b7357506001600160e01b0319868116908516145b80612b8e57506001600160e01b03198616630271189760e51b145b806110f557506301ffc9a760e01b6001600160e01b03198716149695505050505050565b6000306001600160a01b037f000000000000000000000000000000000000000000000000000000000000000016148015612c0b57507f000000000000000000000000000000000000000000000000000000000000000046145b15612c3557507f000000000000000000000000000000000000000000000000000000000000000090565b610a17604080517f8b73c3c69bb8fe3d512ecc4cf759cc79239f7b179b0ffacaa9a75d522b39400f60208201527f0000000000000000000000000000000000000000000000000000000000000000918101919091527f000000000000000000000000000000000000000000000000000000000000000060608201524660808201523060a082015260009060c00160405160208183030381529060405280519060200120905090565b6000807f7fffffffffffffffffffffffffffffff5d576e7357a4501ddfe92f46681b20a0831115612d145750600090506003612d98565b6040805160008082526020820180845289905260ff881692820192909252606081018690526080810185905260019060a0016020604051602081039080840390855afa158015612d68573d6000803e3d6000fd5b5050604051601f1901519150506001600160a01b038116612d9157600060019250925050612d98565b9150600090505b94509492505050565b6000816004811115612db557612db5613ebe565b1415612dbe5750565b6001816004811115612dd257612dd2613ebe565b1415612e205760405162461bcd60e51b815260206004820152601860248201527f45434453413a20696e76616c6964207369676e6174757265000000000000000060448201526064016102e1565b6002816004811115612e3457612e34613ebe565b1415612e825760405162461bcd60e51b815260206004820152601f60248201527f45434453413a20696e76616c6964207369676e6174757265206c656e6774680060448201526064016102e1565b6003816004811115612e9657612e96613ebe565b1415610bbc5760405162461bcd60e51b815260206004820152602260248201527f45434453413a20696e76616c6964207369676e6174757265202773272076616c604482015261756560f01b60648201526084016102e1565b60008581526009602090815260408083206001600160a01b0388168452600381019092529091205460ff1615612f775760405162461bcd60e51b815260206004820152602760248201527f476f7665726e6f72566f74696e6753696d706c653a20766f746520616c726561604482015266191e4818d85cdd60ca1b60648201526084016102e1565b6001600160a01b03851660009081526003820160205260408120805460ff1916600117905560ff168460ff161415612fc85782816000016000828254612fbd919061458a565b90915550611f259050565b60ff841660011415612fe85782816001016000828254612fbd919061458a565b60ff8416600214156130085782816002016000828254612fbd919061458a565b60405162461bcd60e51b815260206004820152603560248201527f476f7665726e6f72566f74696e6753696d706c653a20696e76616c69642076616044820152746c756520666f7220656e756d20566f74655479706560581b60648201526084016102e1565b8154600160801b90819004600f0b6000818152600180860160205260409091209390935583546001600160801b03908116939091011602179055565b600c5460405163e38335e560e01b81526001600160a01b039091169063e38335e59034906130e59088908890889060009089906004016144ce565b6000604051808303818588803b1580156130fe57600080fd5b505af1158015613112573d6000803e3d6000fd5b50505050505050505050565b6000818152600360205260408120600281015460ff16156131425750600792915050565b6002810154610100900460ff161561315d5750600292915050565b6000838152600360205260409020546001600160401b0316806131c25760405162461bcd60e51b815260206004820152601d60248201527f476f7665726e6f723a20756e6b6e6f776e2070726f706f73616c20696400000060448201526064016102e1565b60006131cc611465565b65ffffffffffff1690508082106131e857506000949350505050565b6000858152600360205260409020600101546001600160401b03168181106132165750600195945050505050565b61321f86613612565b801561323e575060008681526009602052604090208054600190910154115b1561324f5750600495945050505050565b50600395945050505050565b60008061326a8686868661365e565b6000818152600d6020526040902054909150156113d457600c546000828152600d60205260409081902054905163c4d252f560e01b81526001600160a01b039092169163c4d252f5916132c39160040190815260200190565b600060405180830381600087803b1580156132dd57600080fd5b505af11580156132f1573d6000803e3d6000fd5b5050506000828152600d60205260408120555095945050505050565b60008161331c57506000919050565b600060016133298461376a565b901c6001901b9050600181848161334257613342614891565b048201901c9050600181848161335a5761335a614891565b048201901c9050600181848161337257613372614891565b048201901c9050600181848161338a5761338a614891565b048201901c905060018184816133a2576133a2614891565b048201901c905060018184816133ba576133ba614891565b048201901c905060018184816133d2576133d2614891565b048201901c905061150d818285816133ec576133ec614891565b046137fe565b60005b818310156134485760006134098484613814565b60008781526020902090915063ffffffff86169082015463ffffffff16111561343457809250613442565b61343f81600161458a565b93505b506133f5565b509392505050565b80516000906034811015613468576001915050610a27565b82810160131901516001600160a01b031981166b046e0e4dee0dee6cae47a60f60a31b1461349b57600192505050610a27565b6000806134a960288561460f565b90505b83811015613520576000806134e08884815181106134cc576134cc614626565b01602001516001600160f81b03191661382f565b91509150816134f85760019650505050505050610a27565b8060ff166004856001600160a01b0316901b1793505050806135199061471d565b90506134ac565b50856001600160a01b0316816001600160a01b031614935050505092915050565b60006001600160401b038211156119b35760405162461bcd60e51b815260206004820152602660248201527f53616665436173743a2076616c756520646f65736e27742066697420696e203660448201526534206269747360d01b60648201526084016102e1565b606060006135b6836138c1565b604080516020808252818301909252919250600091906020820181803683375050509182525060208101929092525090565b8151156135f85781518083602001fd5b8060405162461bcd60e51b81526004016102e19190613be2565b600081815260096020526040812060028101546001820154613634919061458a565b600084815260036020526040902054613655906001600160401b0316611905565b11159392505050565b60008061366d86868686611792565b9050600061367a82610fe3565b9050600281600781111561369057613690613ebe565b141580156136b0575060068160078111156136ad576136ad613ebe565b14155b80156136ce575060078160078111156136cb576136cb613ebe565b14155b61371a5760405162461bcd60e51b815260206004820152601d60248201527f476f7665726e6f723a2070726f706f73616c206e6f742061637469766500000060448201526064016102e1565b60008281526003602052604090819020600201805461ff001916610100179055517f789cf55be980739dad1d0699b93b58e806b51c9d96619bfa8fe0a28abaa7b30c90610e5e9084815260200190565b600080608083901c1561377f57608092831c92015b604083901c1561379157604092831c92015b602083901c156137a357602092831c92015b601083901c156137b557601092831c92015b600883901c156137c757600892831c92015b600483901c156137d957600492831c92015b600283901c156137eb57600292831c92015b600183901c15610a275760010192915050565b600081831061380d578161150d565b5090919050565b600061382360028484186148a7565b61150d9084841661458a565b60008060f883901c602f8111801561384a5750603a8160ff16105b1561385f57600194602f199091019350915050565b8060ff166040108015613875575060478160ff16105b1561388a576001946036199091019350915050565b8060ff1660601080156138a0575060678160ff16105b156138b5576001946056199091019350915050565b50600093849350915050565b600060ff8216601f811115610a2757604051632cd44ac360e21b815260040160405180910390fd5b8280546138f5906143ab565b90600052602060002090601f016020900481019282613917576000855561395d565b82601f1061393057805160ff191683800117855561395d565b8280016001018555821561395d579182015b8281111561395d578251825591602001919060010190613942565b506119b39291505b808211156119b35760008155600101613965565b60006020828403121561398b57600080fd5b81356001600160e01b03198116811461150d57600080fd5b803560ff811681146111cb57600080fd5b60008083601f8401126139c657600080fd5b5081356001600160401b038111156139dd57600080fd5b6020830191508360208285010111156139f557600080fd5b9250929050565b634e487b7160e01b600052604160045260246000fd5b604051601f8201601f191681016001600160401b0381118282101715613a3a57613a3a6139fc565b604052919050565b60006001600160401b03821115613a5b57613a5b6139fc565b50601f01601f191660200190565b6000613a7c613a7784613a42565b613a12565b9050828152838383011115613a9057600080fd5b828260208301376000602084830101529392505050565b600082601f830112613ab857600080fd5b61150d83833560208501613a69565b60008060008060008060008060e0898b031215613ae357600080fd5b88359750613af360208a016139a3565b965060408901356001600160401b0380821115613b0f57600080fd5b613b1b8c838d016139b4565b909850965060608b0135915080821115613b3457600080fd5b50613b418b828c01613aa7565b945050613b5060808a016139a3565b925060a0890135915060c089013590509295985092959890939650565b600060208284031215613b7f57600080fd5b5035919050565b60005b83811015613ba1578181015183820152602001613b89565b83811115613bb0576000848401525b50505050565b60008151808452613bce816020860160208601613b86565b601f01601f19169290920160200192915050565b60208152600061150d6020830184613bb6565b6001600160a01b0381168114610bbc57600080fd5b60008060008060808587031215613c2057600080fd5b8435613c2b81613bf5565b93506020850135613c3b81613bf5565b92506040850135915060608501356001600160401b03811115613c5d57600080fd5b613c6987828801613aa7565b91505092959194509250565b60006001600160401b03821115613c8e57613c8e6139fc565b5060051b60200190565b600082601f830112613ca957600080fd5b81356020613cb9613a7783613c75565b82815260059290921b84018101918181019086841115613cd857600080fd5b8286015b84811015613cfc578035613cef81613bf5565b8352918301918301613cdc565b509695505050505050565b600082601f830112613d1857600080fd5b81356020613d28613a7783613c75565b82815260059290921b84018101918181019086841115613d4757600080fd5b8286015b84811015613cfc5780358352918301918301613d4b565b600082601f830112613d7357600080fd5b81356020613d83613a7783613c75565b82815260059290921b84018101918181019086841115613da257600080fd5b8286015b84811015613cfc5780356001600160401b03811115613dc55760008081fd5b613dd38986838b0101613aa7565b845250918301918301613da6565b60008060008060808587031215613df757600080fd5b84356001600160401b0380821115613e0e57600080fd5b613e1a88838901613c98565b95506020870135915080821115613e3057600080fd5b613e3c88838901613d07565b94506040870135915080821115613e5257600080fd5b50613e5f87828801613d62565b949793965093946060013593505050565b600080600080600060a08688031215613e8857600080fd5b85359450613e98602087016139a3565b9350613ea6604087016139a3565b94979396509394606081013594506080013592915050565b634e487b7160e01b600052602160045260246000fd5b6020810160088310613ef657634e487b7160e01b600052602160045260246000fd5b91905290565b60008060408385031215613f0f57600080fd5b823591506020830135613f2181613bf5565b809150509250929050565b60008060408385031215613f3f57600080fd5b82359150613f4f602084016139a3565b90509250929050565b600080600080600060808688031215613f7057600080fd5b85359450613f80602087016139a3565b935060408601356001600160401b0380821115613f9c57600080fd5b613fa889838a016139b4565b90955093506060880135915080821115613fc157600080fd5b50613fce88828901613aa7565b9150509295509295909350565b60008060008060608587031215613ff157600080fd5b84359350614001602086016139a3565b925060408501356001600160401b0381111561401c57600080fd5b614028878288016139b4565b95989497509550505050565b6000806000806080858703121561404a57600080fd5b84356001600160401b038082111561406157600080fd5b61406d88838901613c98565b9550602087013591508082111561408357600080fd5b61408f88838901613d07565b945060408701359150808211156140a557600080fd5b6140b188838901613d62565b935060608701359150808211156140c757600080fd5b508501601f810187136140d957600080fd5b613c6987823560208401613a69565b600081518084526020808501945080840160005b83811015614118578151875295820195908201906001016140fc565b509495945050505050565b60ff60f81b8816815260e06020820152600061414260e0830189613bb6565b82810360408401526141548189613bb6565b606084018890526001600160a01b038716608085015260a0840186905283810360c08501529050610b2281856140e8565b60008060006060848603121561419a57600080fd5b83356141a581613bf5565b92506020840135915060408401356001600160401b038111156141c757600080fd5b6141d386828701613aa7565b9150509250925092565b6000602082840312156141ef57600080fd5b813561150d81613bf5565b600080600080600060a0868803121561421257600080fd5b853561421d81613bf5565b9450602086013561422d81613bf5565b935060408601356001600160401b038082111561424957600080fd5b61425589838a01613d07565b9450606088013591508082111561426b57600080fd5b61427789838a01613d07565b93506080880135915080821115613fc157600080fd5b600080600080606085870312156142a357600080fd5b84356142ae81613bf5565b93506020850135925060408501356001600160401b0381111561401c57600080fd5b600080604083850312156142e357600080fd5b82356142ee81613bf5565b946020939093013593505050565b600080600080600060a0868803121561431457600080fd5b853561431f81613bf5565b9450602086013561432f81613bf5565b9350604086013592506060860135915060808601356001600160401b0381111561435857600080fd5b613fce88828901613aa7565b8183823760009101908152919050565b60208082526018908201527f476f7665726e6f723a206f6e6c79476f7665726e616e63650000000000000000604082015260600190565b600181811c908216806143bf57607f821691505b602082108114156143e057634e487b7160e01b600052602260045260246000fd5b50919050565b60208082526021908201527f476f7665726e6f723a2070726f706f73616c206e6f74207375636365737366756040820152601b60fa1b606082015260800190565b60006020828403121561443957600080fd5b5051919050565b600081518084526020808501945080840160005b838110156141185781516001600160a01b031687529582019590820190600101614454565b600081518084526020808501808196508360051b8101915082860160005b858110156144c15782840389526144af848351613bb6565b98850198935090840190600101614497565b5091979650505050505050565b60a0815260006144e160a0830188614440565b82810360208401526144f381886140e8565b905082810360408401526145078187614479565b60608401959095525050608001529392505050565b60c08152600061452f60c0830189614440565b828103602084015261454181896140e8565b905082810360408401526145558188614479565b60608401969096525050608081019290925260a0909101529392505050565b634e487b7160e01b600052601160045260246000fd5b6000821982111561459d5761459d614574565b500190565b6000602082840312156145b457600080fd5b81516001600160401b038111156145ca57600080fd5b8201601f810184136145db57600080fd5b80516145e9613a7782613a42565b8181528560208385010111156145fe57600080fd5b6113d4826020830160208601613b86565b60008282101561462157614621614574565b500390565b634e487b7160e01b600052603260045260246000fd5b60006020828403121561464e57600080fd5b815165ffffffffffff8116811461150d57600080fd5b6080815260006146776080830187614440565b828103602084015261468981876140e8565b9050828103604084015261469d8186614479565b91505082606083015295945050505050565b84815260ff841660208201528260408201526080606082015260006110f56080830184613bb6565b85815260ff8516602082015283604082015260a0606082015260006146ff60a0830185613bb6565b82810360808401526147118185613bb6565b98975050505050505050565b600060001982141561473157614731614574565b5060010190565b60006020828403121561474a57600080fd5b8151801515811461150d57600080fd5b60208082526021908201527f476f7665726e6f723a20696e76616c69642070726f706f73616c206c656e67746040820152600d60fb1b606082015260800190565b60006101208b8352602060018060a01b038c16818501528160408501526147c48285018c614440565b915083820360608501526147d8828b6140e8565b915083820360808501528189518084528284019150828160051b850101838c0160005b8381101561482957601f19878403018552614817838351613bb6565b948601949250908501906001016147fb565b505086810360a088015261483d818c614479565b9450505050508560c08401528460e08401528281036101008401526148628185613bb6565b9c9b505050505050505050505050565b600081600019048311821515161561488c5761488c614574565b500290565b634e487b7160e01b600052601260045260246000fd5b6000826148c457634e487b7160e01b600052601260045260246000fd5b500490565b805160208083015191908110156143e05760001960209190910360031b1b1691905056fe476f7665726e6f723a2072656c617920726576657274656420776974686f7574206d657373616765a2646970667358221220e328dcc9fbefd521608ce5de8b03a6600d43c61d3d96753a1d0e224016b025f064736f6c63430008090033",
  "linkReferences": {},
  "deployedLinkReferences": {}
}