{
  "_format": "hh-sol-artifact-1",
  "contractName": "GovernanceToken",
  "sourceName": "contracts/GovernanceToken.sol",
  "abi": [
    {
      "inputs": [
        {
          "internalType": "string",
          "name": "name",
          "type": "string"
        },
        {
          "internalType": "string",
          "name": "symbol",
          "type": "string"
        }
      ],
      "stateMutability": "nonpayable",
      "type": "constructor"
    },
    {
      "inputs": [],
      "name": "InvalidShortString",
      "type": "error"
    },
    {
      "inputs": [
        {
          "internalType": "string",
          "name": "str",
          "type": "string"
        }
      ],
      "name": "StringTooLong",
      "type": "error"
    },
    {
      "anonymous": false,
      "inputs": [
        {
          "indexed": true,
          "internalType": "address",
          "name": "owner",
          "type": "address"
        },
        {
          "indexed": true,
          "internalType": "address",
          "name": "spender",
          "type": "address"
        },
        {
          "indexed": false,
          "internalType": "uint256",
          "name": "value",
          "type": "uint256"
        }
      ],
      "name": "Approval",
      "type": "event"
    },
    {
      "anonymous": false,
      "inputs": [
        {
          "indexed": true,
          "internalType": "address",
          "name": "delegator",
          "type": "address"
        },
        {
          "indexed": true,
          "internalType": "address",
          "name": "fromDelegate",
          "type": "address"
        },
        {
          "indexed": true,
          "internalType": "address",
          "name": "toDelegate",
          "type": "address"
        }
      ],
      "name": "DelegateChanged",
      "type": "event"
    },
    {
      "anonymous": false,
      "inputs": [
        {
          "indexed": true,
          "internalType": "address",
          "name": "delegate",
          "type": "address"
        },
        {
          "indexed": false,
          "internalType": "uint256",
          "name": "previousBalance",
          "type": "uint256"
        },
        {
          "indexed": false,
          "internalType": "uint256",
          "name": "newBalance",
          "type": "uint256"
        }
      ],
      "name": "DelegateVotesChanged",
      "type": "event"
    },
    {
      "anonymous": false,
      "inputs": [],
      "name": "EIP712DomainChanged",
      "type": "event"
    },
    {
      "anonymous": false,
      "inputs": [
        {
          "indexed": true,
          "internalType": "address",
          "name": "from",
          "type": "address"
        },
        {
          "indexed": true,
          "internalType": "address",
          "name": "to",
          "type": "address"
        },
        {
          "indexed": false,
          "internalType": "uint256",
          "name": "value",
          "type": "uint256"
        }
      ],
      "name": "Transfer",
      "type": "event"
    },
    {
      "inputs": [],
      "name": "CLOCK_MODE",
      "outputs": [
        {
          "internalType": "string",
          "name": "",
          "type": "string"
        }
      ],
      "stateMutability": "view",
      "type": "function"
    },
    {
      "inputs": [],
      "name": "DOMAIN_SEPARATOR",
      "outputs": [
        {
          "internalType": "bytes32",
          "name": "",
          "type": "bytes32"
        }
      ],
      "stateMutability": "view",
      "type": "function"
    },
    {
      "inputs": [
        {
          "internalType": "address",
          "name": "owner",
          "type": "address"
        },
        {
          "internalType": "address",
          "name": "spender",
          "type": "address"
        }
      ],
      "name": "allowance",
      "outputs": [
        {
          "internalType": "uint256",
          "name": "",
          "type": "uint256"
        }
      ],
      "stateMutability": "view",
      "type": "function"
    },
    {
      "inputs": [
        {
          "internalType": "address",
          "name": "spender",
          "type": "address"
        },
        {
          "internalType": "uint256",
          "name": "amount",
          "type": "uint256"
        }
      ],
      "name": "approve",
      "outputs": [
        {
          "internalType": "bool",
          "name": "",
          "type": "bool"
        }
      ],
      "stateMutability": "nonpayable",
      "type": "function"
    },
    {
      "inputs": [
        {
          "internalType": "address",
          "name": "account",
          "type": "address"
        }
      ],
      "name": "balanceOf",
      "outputs": [
        {
          "internalType": "uint256",
          "name": "",
          "type": "uint256"
        }
      ],
      "stateMutability": "view",
      "type": "function"
    },
    {
      "inputs": [
        {
          "internalType": "address",
          "name": "account",
          "type": "address"
        },
        {
          "internalType": "uint32",
          "name": "pos",
          "type": "uint32"
        }
      ],
      "name": "checkpoints",
      "outputs": [
        {
          "components": [
            {
              "internalType": "uint32",
              "name": "fromBlock",
              "type": "uint32"
            },
            {
              "internalType": "uint224",
              "name": "votes",
              "type": "uint224"
            }
          ],
          "internalType": "struct ERC20Votes.Checkpoint",
          "name": "",
          "type": "tuple"
        }
      ],
      "stateMutability": "view",
      "type": "function"
    },
    {
      "inputs": [],
      "name": "clock",
      "outputs": [
        {
          "internalType": "uint48",
          "name": "",
          "type": "uint48"
        }
      ],
      "stateMutability": "view",
      "type": "function"
    },
    {
      "inputs": [],
      "name": "decimals",
      "outputs": [
        {
          "internalType": "uint8",
          "name": "",
          "type": "uint8"
        }
      ],
      "stateMutability": "view",
      "type": "function"
    },
    {
      "inputs": [
        {
          "internalType": "address",
          "name": "spender",
          "type": "address"
        },
        {
          "internalType": "uint256",
          "name": "subtractedValue",
          "type": "uint256"
        }
      ],
      "name": "decreaseAllowance",
      "outputs": [
        {
          "internalType": "bool",
          "name": "",
          "type": "bool"
        }
      ],
      "stateMutability": "nonpayable",
      "type": "function"
    },
    {
      "inputs": [
        {
          "internalType": "address",
          "name": "delegatee",
          "type": "address"
        }
      ],
      "name": "delegate",
      "outputs": [],
      "stateMutability": "nonpayable",
      "type": "function"
    },
    {
      "inputs": [
        {
          "internalType": "address",
          "name": "delegatee",
          "type": "address"
        },
        {
          "internalType": "uint256",
          "name": "nonce",
          "type": "uint256"
        },
        {
          "internalType": "uint256",
          "name": "expiry",
          "type": "uint256"
        },
        {
          "internalType": "uint8",
          "name": "v",
          "type": "uint8"
        },
        {
          "internalType": "bytes32",
          "name": "r",
          "type": "bytes32"
        },
        {
          "internalType": "bytes32",
          "name": "s",
          "type": "bytes32"
        }
      ],
      "name": "delegateBySig",
      "outputs": [],
      "stateMutability": "nonpayable",
      "type": "function"
    },
    {
      "inputs": [
        {
          "internalType": "address",
          "name": "account",
          "type": "address"
        }
      ],
      "name": "delegates",
      "outputs": [
        {
          "internalType": "address",
          "name": "",
          "type": "address"
        }
      ],
      "stateMutability": "view",
      "type": "function"
    },
    {
      "inputs": [],
      "name": "eip712Domain",
      "outputs": [
        {
          "internalType": "bytes1",
          "name": "fields",
          "type": "bytes1"
        },
        {
          "internalType": "string",
          "name": "name",
          "type": "string"
        },
        {
          "internalType": "string",
          "name": "version",
          "type": "string"
        },
        {
          "internalType": "uint256",
          "name": "chainId",
          "type": "uint256"
        },
        {
          "internalType": "address",
          "name": "verifyingContract",
          "type": "address"
        },
        {
          "internalType": "bytes32",
          "name": "salt",
          "type": "bytes32"
        },
        {
          "internalType": "uint256[]",
          "name": "extensions",
          "type": "uint256[]"
        }
      ],
      "stateMutability": "view",
      "type": "function"
    },
    {
      "inputs": [
        {
          "internalType": "uint256",
          "name": "timepoint",
          "type": "uint256"
        }
      ],
      "name": "getPastTotalSupply",
      "outputs": [
        {
          "internalType": "uint256",
          "name": "",
          "type": "uint256"
        }
      ],
      "stateMutability": "view",
      "type": "function"
    },
    {
      "inputs": [
        {
          "internalType": "address",
          "name": "account",
          "type": "address"
        },
        {
          "internalType": "uint256",
          "name": "timepoint",
          "type": "uint256"
        }
      ],
      "name": "getPastVotes",
      "outputs": [
        {
          "internalType": "uint256",
          "name": "",
          "type": "uint256"
        }
      ],
      "stateMutability": "view",
      "type": "function"
    },
    {
      "inputs": [
        {
          "internalType": "address",
          "name": "account",
          "type": "address"
        }
      ],
      "name": "getVotes",
      "outputs": [
        {
          "internalType": "uint256",
          "name": "",
          "type": "uint256"
        }
      ],
      "stateMutability": "view",
      "type": "function"
    },
    {
      "inputs": [
        {
          "internalType": "address",
          "name": "spender",
          "type": "address"
        },
        {
          "internalType": "uint256",
          "name": "addedValue",
          "type": "uint256"
        }
      ],
      "name": "increaseAllowance",
      "outputs": [
        {
          "internalType": "bool",
          "name": "",
          "type": "bool"
        }
      ],
      "stateMutability": "nonpayable",
      "type": "function"
    },
    {
      "inputs": [],
      "name": "name",
      "outputs": [
        {
          "internalType": "string",
          "name": "",
          "type": "string"
        }
      ],
      "stateMutability": "view",
      "type": "function"
    },
    {
      "inputs": [
        {
          "internalType": "address",
          "name": "owner",
          "type": "address"
        }
      ],
      "name": "nonces",
      "outputs": [
        {
          "internalType": "uint256",
          "name": "",
          "type": "uint256"
        }
      ],
      "stateMutability": "view",
      "type": "function"
    },
    {
      "inputs": [
        {
          "internalType": "address",
          "name": "account",
          "type": "address"
        }
      ],
      "name": "numCheckpoints",
      "outputs": [
        {
          "internalType": "uint32",
          "name": "",
          "type": "uint32"
        }
      ],
      "stateMutability": "view",
      "type": "function"
    },
    {
      "inputs": [
        {
          "internalType": "address",
          "name": "owner",
          "type": "address"
        },
        {
          "internalType": "address",
          "name": "spender",
          "type": "address"
        },
        {
          "internalType": "uint256",
          "name": "value",
          "type": "uint256"
        },
        {
          "internalType": "uint256",
          "name": "deadline",
          "type": "uint256"
        },
        {
          "internalType": "uint8",
          "name": "v",
          "type": "uint8"
        },
        {
          "internalType": "bytes32",
          "name": "r",
          "type": "bytes32"
        },
        {
          "internalType": "bytes32",
          "name": "s",
          "type": "bytes32"
        }
      ],
      "name": "permit",
      "outputs": [],
      "stateMutability": "nonpayable",
      "type": "function"
    },
    {
      "inputs": [],
      "name": "symbol",
      "outputs": [
        {
          "internalType": "string",
          "name": "",
          "type": "string"
        }
      ],
      "stateMutability": "view",
      "type": "function"
    },
    {
      "inputs": [],
      "name": "totalSupply",
      "outputs": [
        {
          "internalType": "uint256",
          "name": "",
          "type": "uint256"
        }
      ],
      "stateMutability": "view",
      "type": "function"
    },
    {
      "inputs": [
        {
          "internalType": "address",
          "name": "to",
          "type": "address"
        },
        {
          "internalType": "uint256",
          "name": "amount",
          "type": "uint256"
        }
      ],
      "name": "transfer",
      "outputs": [
        {
          "internalType": "bool",
          "name": "",
          "type": "bool"
        }
      ],
      "stateMutability": "nonpayable",
      "type": "function"
    },
    {
      "inputs": [
        {
          "internalType": "address",
          "name": "from",
          "type": "address"
        },
        {
          "internalType": "address",
          "name": "to",
          "type": "address"
        },
        {
          "internalType": "uint256",
          "name": "amount",
          "type": "uint256"
        }
      ],
      "name": "transferFrom",
      "outputs": [
        {
          "internalType": "bool",
          "name": "",
          "type": "bool"
        }
      ],
      "stateMutability": "nonpayable",
      "type": "function"
    }
  ],
  "bytecode": "0x610160604052683635c9adc5dea00000600c553480156200001f57600080fd5b5060405162002c8d38038062002c8d8339810160408190526200004291620009c7565b8180604051806040016040528060018152602001603160f81b815250848481600390805190602001906200007892919062000855565b5080516200008e90600490602084019062000855565b505050620000ac6005836200017960201b62000bb21790919060201c565b61012052620000c981600662000179602090811b62000bb217901c565b61014052815160208084019190912060e052815190820120610100524660a0526200015760e05161010051604080517f8b73c3c69bb8fe3d512ecc4cf759cc79239f7b179b0ffacaa9a75d522b39400f60208201529081019290925260608201524660808201523060a082015260009060c00160405160208183030381529060405280519060200120905090565b60805250503060c05250600c5462000171903390620001cd565b505062000b10565b60006020835110156200019957620001918362000284565b9050620001c7565b82620001b083620002c760201b62000be91760201c565b8151620001c1926020019062000855565b5060ff90505b92915050565b620001e48282620002ca60201b62000bec1760201c565b6001600160e01b03620001f86200039b8216565b1115620002655760405162461bcd60e51b815260206004820152603060248201527f4552433230566f7465733a20746f74616c20737570706c79207269736b73206f60448201526f766572666c6f77696e6720766f74657360801b60648201526084015b60405180910390fd5b6200027e600b62000cb7620003a160201b1783620003b6565b50505050565b600080829050601f81511115620002b2578260405163305a27a960e01b81526004016200025c919062000a31565b8051620002bf8262000a66565b179392505050565b90565b6001600160a01b038216620003225760405162461bcd60e51b815260206004820152601f60248201527f45524332303a206d696e7420746f20746865207a65726f20616464726573730060448201526064016200025c565b806002600082825462000336919062000aa4565b90915550506001600160a01b038216600081815260208181526040808320805486019055518481527fddf252ad1be2c89b69c2b068fc378daa952ba7f163c4a11628f55a4df523b3ef910160405180910390a3620003976000838362000564565b5050565b60025490565b6000620003af828462000aa4565b9392505050565b82546000908190818115620004055760008781526020902082016000190160408051808201909152905463ffffffff8116825264010000000090046001600160e01b031660208201526200041a565b60408051808201909152600080825260208201525b905080602001516001600160e01b031693506200043884868860201c565b925060008211801562000465575062000450620005b0565b65ffffffffffff16816000015163ffffffff16145b15620004b9576200048183620005cd60201b62000cc31760201c565b60008881526020902083016000190180546001600160e01b03929092166401000000000263ffffffff90921691909117905562000555565b866040518060400160405280620004f2620004d9620005b060201b60201c565b65ffffffffffff166200063c60201b62000d301760201c565b63ffffffff1681526020016200051386620005cd60201b62000cc31760201c565b6001600160e01b0390811690915282546001810184556000938452602093849020835194909301519091166401000000000263ffffffff909316929092179101555b5050935093915050565b505050565b6200057c8383836200055f60201b62000d951760201c565b6001600160a01b038381166000908152600960205260408082205485841683529120546200055f92918216911683620006a3565b6000620005c843620007de60201b62000d9a1760201c565b905090565b60006001600160e01b03821115620006385760405162461bcd60e51b815260206004820152602760248201527f53616665436173743a2076616c756520646f65736e27742066697420696e20326044820152663234206269747360c81b60648201526084016200025c565b5090565b600063ffffffff821115620006385760405162461bcd60e51b815260206004820152602660248201527f53616665436173743a2076616c756520646f65736e27742066697420696e203360448201526532206269747360d01b60648201526084016200025c565b816001600160a01b0316836001600160a01b031614158015620006c65750600081115b156200055f576001600160a01b0383161562000753576001600160a01b0383166000908152600a602090815260408220829162000710919062000847901b62000e011785620003b6565b91509150846001600160a01b031660008051602062002c6d833981519152838360405162000748929190918252602082015260400190565b60405180910390a250505b6001600160a01b038216156200055f576001600160a01b0382166000908152600a6020908152604082208291620007979190620003a1901b62000cb71785620003b6565b91509150836001600160a01b031660008051602062002c6d8339815191528383604051620007cf929190918252602082015260400190565b60405180910390a25050505050565b600065ffffffffffff821115620006385760405162461bcd60e51b815260206004820152602660248201527f53616665436173743a2076616c756520646f65736e27742066697420696e203460448201526538206269747360d01b60648201526084016200025c565b6000620003af828462000abf565b828054620008639062000ad9565b90600052602060002090601f016020900481019282620008875760008555620008d2565b82601f10620008a257805160ff1916838001178555620008d2565b82800160010185558215620008d2579182015b82811115620008d2578251825591602001919060010190620008b5565b50620006389291505b80821115620006385760008155600101620008db565b634e487b7160e01b600052604160045260246000fd5b60005b83811015620009245781810151838201526020016200090a565b838111156200027e5750506000910152565b600082601f8301126200094857600080fd5b81516001600160401b0380821115620009655762000965620008f1565b604051601f8301601f19908116603f01168101908282118183101715620009905762000990620008f1565b81604052838152866020858801011115620009aa57600080fd5b620009bd84602083016020890162000907565b9695505050505050565b60008060408385031215620009db57600080fd5b82516001600160401b0380821115620009f357600080fd5b62000a018683870162000936565b9350602085015191508082111562000a1857600080fd5b5062000a278582860162000936565b9150509250929050565b602081526000825180602084015262000a5281604085016020870162000907565b601f01601f19169190910160400192915050565b8051602080830151919081101562000a88576000198160200360031b1b821691505b50919050565b634e487b7160e01b600052601160045260246000fd5b6000821982111562000aba5762000aba62000a8e565b500190565b60008282101562000ad45762000ad462000a8e565b500390565b600181811c9082168062000aee57607f821691505b6020821081141562000a8857634e487b7160e01b600052602260045260246000fd5b60805160a05160c05160e05161010051610120516101405161210262000b6b600039600061068d015260006106620152600061122f01526000611207015260006111620152600061118c015260006111b601526121026000f3fe608060405234801561001057600080fd5b50600436106101735760003560e01c806370a08231116100de5780639ab24eb011610097578063c3cda52011610071578063c3cda5201461036e578063d505accf14610381578063dd62ed3e14610394578063f1127ed8146103a757600080fd5b80639ab24eb014610335578063a457c2d714610348578063a9059cbb1461035b57600080fd5b806370a08231146102a45780637ecebe00146102cd57806384b0196e146102e05780638e539e8c146102fb57806391ddadf41461030e57806395d89b411461032d57600080fd5b8063395093511161013057806339509351146101f55780633a46b1a8146102085780634bf5d7e91461021b578063587cde1e146102235780635c19a95c146102675780636fcfff451461027c57600080fd5b806306fdde0314610178578063095ea7b31461019657806318160ddd146101b957806323b872dd146101cb578063313ce567146101de5780633644e515146101ed575b600080fd5b6101806103e4565b60405161018d9190611d25565b60405180910390f35b6101a96101a4366004611d54565b610476565b604051901515815260200161018d565b6002545b60405190815260200161018d565b6101a96101d9366004611d7e565b610490565b6040516012815260200161018d565b6101bd6104b4565b6101a9610203366004611d54565b6104c3565b6101bd610216366004611d54565b6104e5565b61018061056f565b61024f610231366004611dba565b6001600160a01b039081166000908152600960205260409020541690565b6040516001600160a01b03909116815260200161018d565b61027a610275366004611dba565b610607565b005b61028f61028a366004611dba565b610614565b60405163ffffffff909116815260200161018d565b6101bd6102b2366004611dba565b6001600160a01b031660009081526020819052604090205490565b6101bd6102db366004611dba565b610636565b6102e8610654565b60405161018d9796959493929190611dd5565b6101bd610309366004611e6b565b6106dd565b610316610744565b60405165ffffffffffff909116815260200161018d565b61018061074f565b6101bd610343366004611dba565b61075e565b6101a9610356366004611d54565b6107e0565b6101a9610369366004611d54565b61085b565b61027a61037c366004611e95565b610869565b61027a61038f366004611eed565b61099f565b6101bd6103a2366004611f57565b610b03565b6103ba6103b5366004611f8a565b610b2e565b60408051825163ffffffff1681526020928301516001600160e01b0316928101929092520161018d565b6060600380546103f390611fca565b80601f016020809104026020016040519081016040528092919081815260200182805461041f90611fca565b801561046c5780601f106104415761010080835404028352916020019161046c565b820191906000526020600020905b81548152906001019060200180831161044f57829003601f168201915b5050505050905090565b600033610484818585610e0d565b60019150505b92915050565b60003361049e858285610f31565b6104a9858585610fab565b506001949350505050565b60006104be611155565b905090565b6000336104848185856104d68383610b03565b6104e09190612015565b610e0d565b60006104ef610744565b65ffffffffffff1682106105465760405162461bcd60e51b815260206004820152601960248201527804552433230566f7465733a20667574757265206c6f6f6b757603c1b60448201526064015b60405180910390fd5b6001600160a01b0383166000908152600a602052604090206105689083611280565b9392505050565b60604361057a610744565b65ffffffffffff16146105cf5760405162461bcd60e51b815260206004820152601d60248201527f4552433230566f7465733a2062726f6b656e20636c6f636b206d6f6465000000604482015260640161053d565b5060408051808201909152601d81527f6d6f64653d626c6f636b6e756d6265722666726f6d3d64656661756c74000000602082015290565b6106113382611369565b50565b6001600160a01b0381166000908152600a602052604081205461048a90610d30565b6001600160a01b03811660009081526007602052604081205461048a565b6000606080828080836106887f000000000000000000000000000000000000000000000000000000000000000060056113e2565b6106b37f000000000000000000000000000000000000000000000000000000000000000060066113e2565b60408051600080825260208201909252600f60f81b9b939a50919850469750309650945092509050565b60006106e7610744565b65ffffffffffff1682106107395760405162461bcd60e51b815260206004820152601960248201527804552433230566f7465733a20667574757265206c6f6f6b757603c1b604482015260640161053d565b61048a600b83611280565b60006104be43610d9a565b6060600480546103f390611fca565b6001600160a01b0381166000908152600a602052604081205480156107cd576001600160a01b0383166000908152600a60205260409020805460001983019081106107ab576107ab61202d565b60009182526020909120015464010000000090046001600160e01b03166107d0565b60005b6001600160e01b03169392505050565b600033816107ee8286610b03565b90508381101561084e5760405162461bcd60e51b815260206004820152602560248201527f45524332303a2064656372656173656420616c6c6f77616e63652062656c6f77604482015264207a65726f60d81b606482015260840161053d565b6104a98286868403610e0d565b600033610484818585610fab565b834211156108b95760405162461bcd60e51b815260206004820152601d60248201527f4552433230566f7465733a207369676e61747572652065787069726564000000604482015260640161053d565b604080517fe48329057bfd03d55e49b547132e39cffd9c1820ad7b9d4c5307691425d15adf60208201526001600160a01b0388169181019190915260608101869052608081018590526000906109339061092b9060a00160405160208183030381529060405280519060200120611486565b8585856114b3565b905061093e816114db565b861461098c5760405162461bcd60e51b815260206004820152601960248201527f4552433230566f7465733a20696e76616c6964206e6f6e636500000000000000604482015260640161053d565b6109968188611369565b50505050505050565b834211156109ef5760405162461bcd60e51b815260206004820152601d60248201527f45524332305065726d69743a206578706972656420646561646c696e65000000604482015260640161053d565b60007f6e71edae12b1b97f4d1f60370fef10105fa2faae0126114a169c64845d6126c9888888610a1e8c6114db565b6040805160208101969096526001600160a01b0394851690860152929091166060840152608083015260a082015260c0810186905260e0016040516020818303038152906040528051906020012090506000610a7982611486565b90506000610a89828787876114b3565b9050896001600160a01b0316816001600160a01b031614610aec5760405162461bcd60e51b815260206004820152601e60248201527f45524332305065726d69743a20696e76616c6964207369676e61747572650000604482015260640161053d565b610af78a8a8a610e0d565b50505050505050505050565b6001600160a01b03918216600090815260016020908152604080832093909416825291909152205490565b60408051808201909152600080825260208201526001600160a01b0383166000908152600a60205260409020805463ffffffff8416908110610b7257610b7261202d565b60009182526020918290206040805180820190915291015463ffffffff8116825264010000000090046001600160e01b0316918101919091529392505050565b6000602083511015610bce57610bc783611503565b905061048a565b82828151610bdf9260200190611c48565b5060ff905061048a565b90565b6001600160a01b038216610c425760405162461bcd60e51b815260206004820152601f60248201527f45524332303a206d696e7420746f20746865207a65726f206164647265737300604482015260640161053d565b8060026000828254610c549190612015565b90915550506001600160a01b038216600081815260208181526040808320805486019055518481527fddf252ad1be2c89b69c2b068fc378daa952ba7f163c4a11628f55a4df523b3ef910160405180910390a3610cb360008383611541565b5050565b60006105688284612015565b60006001600160e01b03821115610d2c5760405162461bcd60e51b815260206004820152602760248201527f53616665436173743a2076616c756520646f65736e27742066697420696e20326044820152663234206269747360c81b606482015260840161053d565b5090565b600063ffffffff821115610d2c5760405162461bcd60e51b815260206004820152602660248201527f53616665436173743a2076616c756520646f65736e27742066697420696e203360448201526532206269747360d01b606482015260840161053d565b505050565b600065ffffffffffff821115610d2c5760405162461bcd60e51b815260206004820152602660248201527f53616665436173743a2076616c756520646f65736e27742066697420696e203460448201526538206269747360d01b606482015260840161053d565b60006105688284612043565b6001600160a01b038316610e6f5760405162461bcd60e51b8152602060048201526024808201527f45524332303a20617070726f76652066726f6d20746865207a65726f206164646044820152637265737360e01b606482015260840161053d565b6001600160a01b038216610ed05760405162461bcd60e51b815260206004820152602260248201527f45524332303a20617070726f766520746f20746865207a65726f206164647265604482015261737360f01b606482015260840161053d565b6001600160a01b0383811660008181526001602090815260408083209487168084529482529182902085905590518481527f8c5be1e5ebec7d5bd14f71427d1e84f3dd0314c0f7b2291e5b200ac8c7c3b925910160405180910390a3505050565b6000610f3d8484610b03565b90506000198114610fa55781811015610f985760405162461bcd60e51b815260206004820152601d60248201527f45524332303a20696e73756666696369656e7420616c6c6f77616e6365000000604482015260640161053d565b610fa58484848403610e0d565b50505050565b6001600160a01b03831661100f5760405162461bcd60e51b815260206004820152602560248201527f45524332303a207472616e736665722066726f6d20746865207a65726f206164604482015264647265737360d81b606482015260840161053d565b6001600160a01b0382166110715760405162461bcd60e51b815260206004820152602360248201527f45524332303a207472616e7366657220746f20746865207a65726f206164647260448201526265737360e81b606482015260840161053d565b6001600160a01b038316600090815260208190526040902054818110156110e95760405162461bcd60e51b815260206004820152602660248201527f45524332303a207472616e7366657220616d6f756e7420657863656564732062604482015265616c616e636560d01b606482015260840161053d565b6001600160a01b03848116600081815260208181526040808320878703905593871680835291849020805487019055925185815290927fddf252ad1be2c89b69c2b068fc378daa952ba7f163c4a11628f55a4df523b3ef910160405180910390a3610fa5848484611541565b6000306001600160a01b037f0000000000000000000000000000000000000000000000000000000000000000161480156111ae57507f000000000000000000000000000000000000000000000000000000000000000046145b156111d857507f000000000000000000000000000000000000000000000000000000000000000090565b6104be604080517f8b73c3c69bb8fe3d512ecc4cf759cc79239f7b179b0ffacaa9a75d522b39400f60208201527f0000000000000000000000000000000000000000000000000000000000000000918101919091527f000000000000000000000000000000000000000000000000000000000000000060608201524660808201523060a082015260009060c00160405160208183030381529060405280519060200120905090565b8154600090818160058111156112da57600061129b84611573565b6112a59085612043565b600088815260209020909150869082015463ffffffff1611156112ca578091506112d8565b6112d5816001612015565b92505b505b808210156113275760006112ee8383611658565b600088815260209020909150869082015463ffffffff16111561131357809150611321565b61131e816001612015565b92505b506112da565b8015611353576000868152602090208101600019015464010000000090046001600160e01b0316611356565b60005b6001600160e01b03169695505050505050565b6001600160a01b038281166000818152600960208181526040808420805485845282862054949093528787166001600160a01b03198416811790915590519190951694919391928592917f3134e8a2e6d97e929a7e54011ea5485d7d196dd5f0ba4d4ef95803e8e3fc257f9190a4610fa5828483611673565b606060ff83146113f557610bc7836117b0565b81805461140190611fca565b80601f016020809104026020016040519081016040528092919081815260200182805461142d90611fca565b801561147a5780601f1061144f5761010080835404028352916020019161147a565b820191906000526020600020905b81548152906001019060200180831161145d57829003601f168201915b5050505050905061048a565b600061048a611493611155565b8360405161190160f01b8152600281019290925260228201526042902090565b60008060006114c4878787876117ef565b915091506114d1816118b3565b5095945050505050565b6001600160a01b03811660009081526007602052604090208054600181018255905b50919050565b600080829050601f8151111561152e578260405163305a27a960e01b815260040161053d9190611d25565b80516115398261205a565b179392505050565b6001600160a01b03838116600090815260096020526040808220548584168352912054610d9592918216911683611673565b60008161158257506000919050565b6000600161158f84611a01565b901c6001901b905060018184816115a8576115a861207e565b048201901c905060018184816115c0576115c061207e565b048201901c905060018184816115d8576115d861207e565b048201901c905060018184816115f0576115f061207e565b048201901c905060018184816116085761160861207e565b048201901c905060018184816116205761162061207e565b048201901c905060018184816116385761163861207e565b048201901c9050610568818285816116525761165261207e565b04611a95565b60006116676002848418612094565b61056890848416612015565b816001600160a01b0316836001600160a01b0316141580156116955750600081115b15610d95576001600160a01b03831615611723576001600160a01b0383166000908152600a6020526040812081906116d090610e0185611aab565b91509150846001600160a01b03167fdec2bacdd2f05b59de34da9b523dff8be42e5e38e818c82fdb0bae774387a7248383604051611718929190918252602082015260400190565b60405180910390a250505b6001600160a01b03821615610d95576001600160a01b0382166000908152600a60205260408120819061175990610cb785611aab565b91509150836001600160a01b03167fdec2bacdd2f05b59de34da9b523dff8be42e5e38e818c82fdb0bae774387a72483836040516117a1929190918252602082015260400190565b60405180910390a25050505050565b606060006117bd83611c20565b604080516020808252818301909252919250600091906020820181803683375050509182525060208101929092525090565b6000807f7fffffffffffffffffffffffffffffff5d576e7357a4501ddfe92f46681b20a083111561182657506000905060036118aa565b6040805160008082526020820180845289905260ff881692820192909252606081018690526080810185905260019060a0016020604051602081039080840390855afa15801561187a573d6000803e3d6000fd5b5050604051601f1901519150506001600160a01b0381166118a3576000600192509250506118aa565b9150600090505b94509492505050565b60008160048111156118c7576118c76120b6565b14156118d05750565b60018160048111156118e4576118e46120b6565b14156119325760405162461bcd60e51b815260206004820152601860248201527f45434453413a20696e76616c6964207369676e61747572650000000000000000604482015260640161053d565b6002816004811115611946576119466120b6565b14156119945760405162461bcd60e51b815260206004820152601f60248201527f45434453413a20696e76616c6964207369676e6174757265206c656e67746800604482015260640161053d565b60038160048111156119a8576119a86120b6565b14156106115760405162461bcd60e51b815260206004820152602260248201527f45434453413a20696e76616c6964207369676e6174757265202773272076616c604482015261756560f01b606482015260840161053d565b600080608083901c15611a1657608092831c92015b604083901c15611a2857604092831c92015b602083901c15611a3a57602092831c92015b601083901c15611a4c57601092831c92015b600883901c15611a5e57600892831c92015b600483901c15611a7057600492831c92015b600283901c15611a8257600292831c92015b600183901c1561048a5760010192915050565b6000818310611aa45781610568565b5090919050565b82546000908190818115611af85760008781526020902082016000190160408051808201909152905463ffffffff8116825264010000000090046001600160e01b03166020820152611b0d565b60408051808201909152600080825260208201525b905080602001516001600160e01b03169350611b2d84868863ffffffff16565b9250600082118015611b575750611b42610744565b65ffffffffffff16816000015163ffffffff16145b15611b9c57611b6583610cc3565b60008881526020902083016000190180546001600160e01b03929092166401000000000263ffffffff909216919091179055611c16565b866040518060400160405280611bc0611bb3610744565b65ffffffffffff16610d30565b63ffffffff168152602001611bd486610cc3565b6001600160e01b0390811690915282546001810184556000938452602093849020835194909301519091166401000000000263ffffffff909316929092179101555b5050935093915050565b600060ff8216601f81111561048a57604051632cd44ac360e21b815260040160405180910390fd5b828054611c5490611fca565b90600052602060002090601f016020900481019282611c765760008555611cbc565b82601f10611c8f57805160ff1916838001178555611cbc565b82800160010185558215611cbc579182015b82811115611cbc578251825591602001919060010190611ca1565b50610d2c9291505b80821115610d2c5760008155600101611cc4565b6000815180845260005b81811015611cfe57602081850181015186830182015201611ce2565b81811115611d10576000602083870101525b50601f01601f19169290920160200192915050565b6020815260006105686020830184611cd8565b80356001600160a01b0381168114611d4f57600080fd5b919050565b60008060408385031215611d6757600080fd5b611d7083611d38565b946020939093013593505050565b600080600060608486031215611d9357600080fd5b611d9c84611d38565b9250611daa60208501611d38565b9150604084013590509250925092565b600060208284031215611dcc57600080fd5b61056882611d38565b60ff60f81b881681526000602060e081840152611df560e084018a611cd8565b8381036040850152611e07818a611cd8565b606085018990526001600160a01b038816608086015260a0850187905284810360c0860152855180825283870192509083019060005b81811015611e5957835183529284019291840191600101611e3d565b50909c9b505050505050505050505050565b600060208284031215611e7d57600080fd5b5035919050565b803560ff81168114611d4f57600080fd5b60008060008060008060c08789031215611eae57600080fd5b611eb787611d38565b95506020870135945060408701359350611ed360608801611e84565b92506080870135915060a087013590509295509295509295565b600080600080600080600060e0888a031215611f0857600080fd5b611f1188611d38565b9650611f1f60208901611d38565b95506040880135945060608801359350611f3b60808901611e84565b925060a0880135915060c0880135905092959891949750929550565b60008060408385031215611f6a57600080fd5b611f7383611d38565b9150611f8160208401611d38565b90509250929050565b60008060408385031215611f9d57600080fd5b611fa683611d38565b9150602083013563ffffffff81168114611fbf57600080fd5b809150509250929050565b600181811c90821680611fde57607f821691505b602082108114156114fd57634e487b7160e01b600052602260045260246000fd5b634e487b7160e01b600052601160045260246000fd5b6000821982111561202857612028611fff565b500190565b634e487b7160e01b600052603260045260246000fd5b60008282101561205557612055611fff565b500390565b805160208083015191908110156114fd5760001960209190910360031b1b16919050565b634e487b7160e01b600052601260045260246000fd5b6000826120b157634e487b7160e01b600052601260045260246000fd5b500490565b634e487b7160e01b600052602160045260246000fdfea2646970667358221220a108a9d06978ad670c4d82514c474e10ce8a6f31ca18fa1efbf4a82d3677e3ff64736f6c63430008090033dec2bacdd2f05b59de34da9b523dff8be42e5e38e818c82fdb0bae774387a724",
  "linkReferences": {},
  "deployedLinkReferences": {}
}